{
	"data": {
		"bytecode": {
			"linkReferences": {},
			"object": "608060405260646007555f600855621e848060095534801562000020575f80fd5b5060405162003eac38038062003eac833981016040819052620000439162000118565b60015f81815581546001600160a81b0319166101006001600160a01b03851690810291909117909255604051839291907f8be0079c531659141344cd1fd0a4f28419497f9722a3daafe3b4186f6b6457e0908290a35050600280546001600160a01b03199081166001600160a01b03978816179091556004805482169387169390931790925560068054831691861691909117905560058054821692851692909217909155600380549091169190921617905562000195565b80516001600160a01b038116811462000113575f80fd5b919050565b5f805f805f8060c087890312156200012e575f80fd5b6200013987620000fc565b95506200014960208801620000fc565b94506200015960408801620000fc565b93506200016960608801620000fc565b92506200017960808801620000fc565b91506200018960a08801620000fc565b90509295509295509295565b613d0980620001a35f395ff3fe6080604052600436106101ba575f3560e01c80635c975abb116100f25780638da5cb5b11610092578063a1e9b51111610062578063a1e9b511146104f4578063aced166114610513578063c6bbd5a714610532578063f2fde38b14610551575f80fd5b80638da5cb5b146104755780639012c4a81461049757806395048d46146104b657806397790217146104d5575f80fd5b806373a423d0116100cd57806373a423d0146103f85780637489ec23146104175780638456cb59146104365780638918298c1461044a575f80fd5b80635c975abb146103a357806366718524146103c5578063715018a6146103e4575f80fd5b80632c76d7a61161015d5780633f4ba83a116101385780633f4ba83a14610318578063530e37941461032c57806354694a42146103625780635778472a14610377575f80fd5b80632c76d7a6146102b05780632e3d1174146102cf57806336888652146102e2575f80fd5b806314bff9bd1161019857806314bff9bd146102265780631694505e1461023a5780631d834409146102715780631db5c45114610285575f80fd5b806301f9b871146101be57806304e57eb7146101df5780630e8eec7b14610207575b5f80fd5b3480156101c9575f80fd5b506101dd6101d836600461368f565b610570565b005b3480156101ea575f80fd5b506101f4600a5481565b6040519081526020015b60405180910390f35b348015610212575f80fd5b506101dd61022136600461368f565b610617565b348015610231575f80fd5b506101dd61070c565b348015610245575f80fd5b50600354610259906001600160a01b031681565b6040516001600160a01b0390911681526020016101fe565b34801561027c575f80fd5b506101f46107f5565b348015610290575f80fd5b506101f461029f36600461368f565b600c6020525f908152604090205481565b3480156102bb575f80fd5b50600254610259906001600160a01b031681565b6101f46102dd36600461373d565b610805565b3480156102ed575f80fd5b506101f46102fc3660046137df565b600e60209081525f928352604080842090915290825290205481565b348015610323575f80fd5b506101dd610904565b348015610337575f80fd5b506101f46103463660046137df565b600d60209081525f928352604080842090915290825290205481565b34801561036d575f80fd5b506101f460095481565b348015610382575f80fd5b50610396610391366004613807565b61096e565b6040516101fe9190613860565b3480156103ae575f80fd5b5060015460ff1660405190151581526020016101fe565b3480156103d0575f80fd5b506101dd6103df36600461368f565b610b36565b3480156103ef575f80fd5b506101dd610bd0565b348015610403575f80fd5b506101f4610412366004613807565b610c96565b348015610422575f80fd5b506101dd610431366004613807565b610ca8565b348015610441575f80fd5b506101dd610f2f565b348015610455575f80fd5b506101f461046436600461368f565b600b6020525f908152604090205481565b348015610480575f80fd5b5060015461010090046001600160a01b0316610259565b3480156104a2575f80fd5b506101dd6104b1366004613807565b610f97565b3480156104c1575f80fd5b506101dd6104d0366004613807565b610ffc565b3480156104e0575f80fd5b506101dd6104ef36600461368f565b611219565b3480156104ff575f80fd5b506101dd61050e366004613807565b6112b3565b34801561051e575f80fd5b50600454610259906001600160a01b031681565b34801561053d575f80fd5b50600554610259906001600160a01b031681565b34801561055c575f80fd5b506101dd61056b36600461368f565b61151d565b6006546001600160a01b0316336001600160a01b0316146105bd576040517fcb0f603600000000000000000000000000000000000000000000000000000000815260040160405180910390fd5b6006546001600160a01b031633146105d3575f80fd5b6006546001600160a01b038281165f818152600b60205260409020546105fe93919290911690611676565b6001600160a01b03165f908152600b6020526040812055565b6001546001600160a01b0361010090910416331461067c5760405162461bcd60e51b815260206004820181905260248201527f4f776e61626c653a2063616c6c6572206973206e6f7420746865206f776e657260448201526064015b60405180910390fd5b6001600160a01b0381166106d25760405162461bcd60e51b815260206004820152600f60248201527f496e76616c6964206164647265737300000000000000000000000000000000006044820152606401610673565b600280547fffffffffffffffffffffffff0000000000000000000000000000000000000000166001600160a01b0392909216919091179055565b6004546001600160a01b0316336001600160a01b031614610759576040517fcb0f603600000000000000000000000000000000000000000000000000000000815260040160405180910390fd5b60025f54036107aa5760405162461bcd60e51b815260206004820152601f60248201527f5265656e7472616e637947756172643a207265656e7472616e742063616c6c006044820152606401610673565b60025f908155600454600a546040516001600160a01b039092169281156108fc029290818181858888f193505050501580156107e8573d5f803e3d5ffd5b505f600a81905560019055565b5f6108006010611723565b905090565b5f61081260015460ff1690565b1561085f5760405162461bcd60e51b815260206004820152601060248201527f5061757361626c653a20706175736564000000000000000000000000000000006044820152606401610673565b60025f54036108b05760405162461bcd60e51b815260206004820152601f60248201527f5265656e7472616e637947756172643a207265656e7472616e742063616c6c006044820152606401610673565b60025f9081556009546108d29060ff8616906108cc903a61172c565b9061172c565b90506108e488888888888887346117cd565b506108f58787878787873334611a2c565b60015f55979650505050505050565b6001546001600160a01b036101009091041633146109645760405162461bcd60e51b815260206004820181905260248201527f4f776e61626c653a2063616c6c6572206973206e6f7420746865206f776e65726044820152606401610673565b61096c611de3565b565b6109df604051806101a001604052805f80191681526020015f8152602001606081526020015f6001600160a01b031681526020015f81526020015f81526020015f81526020015f60ff1681526020015f60ff1681526020015f81526020015f81526020015f81526020015f81525090565b6109ea601083611e9d565b610a365760405162461bcd60e51b815260206004820152601b60248201527f517565727920666f72206e6f6e6578697374656e74206f7264657200000000006044820152606401610673565b5f828152600f602090815260409182902082516101a0810184528154815260018201548184015260028201805485518186028101860187528181529295939493860193830182828015610ab057602002820191905f5260205f20905b81546001600160a01b03168152600190910190602001808311610a92575b505050918352505060038201546001600160a01b03166020820152600482015460408201526005820154606082015260068201546080820152600782015460ff80821660a0840152610100918290041660c0830152600883015460e0830152600983015490820152600a820154610120820152600b909101546101409091015292915050565b6001546001600160a01b03610100909104163314610b965760405162461bcd60e51b815260206004820181905260248201527f4f776e61626c653a2063616c6c6572206973206e6f7420746865206f776e65726044820152606401610673565b600680547fffffffffffffffffffffffff0000000000000000000000000000000000000000166001600160a01b0392909216919091179055565b6001546001600160a01b03610100909104163314610c305760405162461bcd60e51b815260206004820181905260248201527f4f776e61626c653a2063616c6c6572206973206e6f7420746865206f776e65726044820152606401610673565b6001546040515f9161010090046001600160a01b0316907f8be0079c531659141344cd1fd0a4f28419497f9722a3daafe3b4186f6b6457e0908390a3600180547fffffffffffffffffffffff0000000000000000000000000000000000000000ff169055565b5f610ca2601083611eb4565b92915050565b60025f5403610cf95760405162461bcd60e51b815260206004820152601f60248201527f5265656e7472616e637947756172643a207265656e7472616e742063616c6c006044820152606401610673565b60025f55610d08601082611e9d565b610d545760405162461bcd60e51b815260206004820152601460248201527f4f7264657220646f6573206e6f742065786973740000000000000000000000006044820152606401610673565b5f818152600f6020908152604080832081516101a08101835281548152600182015481850152600282018054845181870281018701865281815292959394860193830182828015610dcc57602002820191905f5260205f20905b81546001600160a01b03168152600190910190602001808311610dae575b505050918352505060038201546001600160a01b03166020820152600482015460408201526005820154606082015260068201546080820152600782015460ff80821660a0840152610100918290041660c0830152600883015460e0830152600983015490820152600a820154610120820152600b90910154610140909101529050336001600160a01b031681606001516001600160a01b031614610eb35760405162461bcd60e51b815260206004820152600e60248201527f496e76616c6964206163636573730000000000000000000000000000000000006044820152606401610673565b5f81604001515f81518110610eca57610eca613930565b602002602001015190505f8261016001519050610ee78433611ebf565b610efb8360c0015183856060015184611fac565b60405184907f5152abf959f6564662358c2e52b702259b78bac5ee7842a0f01937e670efcc7d905f90a2505060015f555050565b6001546001600160a01b03610100909104163314610f8f5760405162461bcd60e51b815260206004820181905260248201527f4f776e61626c653a2063616c6c6572206973206e6f7420746865206f776e65726044820152606401610673565b61096c611ffa565b6001546001600160a01b03610100909104163314610ff75760405162461bcd60e51b815260206004820181905260248201527f4f776e61626c653a2063616c6c6572206973206e6f7420746865206f776e65726044820152606401610673565b600755565b6004546001600160a01b0316336001600160a01b031614611049576040517fcb0f603600000000000000000000000000000000000000000000000000000000815260040160405180910390fd5b611054601082611e9d565b6110a05760405162461bcd60e51b815260206004820152601460248201527f4f7264657220646f6573206e6f742065786973740000000000000000000000006044820152606401610673565b5f818152600f6020908152604080832081516101a0810183528154815260018201548185015260028201805484518187028101870186528181529295939486019383018282801561111857602002820191905f5260205f20905b81546001600160a01b031681526001909101906020018083116110fa575b505050918352505060038201546001600160a01b0316602082015260048201546040808301919091526005830154606083015260068301546080830152600783015460ff80821660a0850152610100918290041660c0840152600884015460e0840152600984015490830152600a830154610120830152600b909201546101409091015281015180519192505f9182906111b4576111b4613930565b602002602001015190505f82610160015190506111d5848460600151611ebf565b6111e98360c0015183856060015184611fac565b60405184907f5152abf959f6564662358c2e52b702259b78bac5ee7842a0f01937e670efcc7d905f90a250505050565b6001546001600160a01b036101009091041633146112795760405162461bcd60e51b815260206004820181905260248201527f4f776e61626c653a2063616c6c6572206973206e6f7420746865206f776e65726044820152606401610673565b600480547fffffffffffffffffffffffff0000000000000000000000000000000000000000166001600160a01b0392909216919091179055565b60025f54036113045760405162461bcd60e51b815260206004820152601f60248201527f5265656e7472616e637947756172643a207265656e7472616e742063616c6c006044820152606401610673565b60025f556004546001600160a01b0316336001600160a01b031614611355576040517fcb0f603600000000000000000000000000000000000000000000000000000000815260040160405180910390fd5b5f5a9050611364601083611e9d565b6113b05760405162461bcd60e51b815260206004820152601460248201527f4f7264657220646f6573206e6f742065786973740000000000000000000000006044820152606401610673565b6113b98261209e565b5f828152600f60205260408120905a90505f6113d5828561398a565b90505f6113e83a6108cc846188b861246d565b600a549091506113f8908261246d565b600a90815584015481111561144f5760405162461bcd60e51b815260206004820152601860248201527f696e73756666696369656e7420747820666565206c65667400000000000000006044820152606401610673565b600a84015461145e90826124cb565b600a850155600784015460ff165f03611511576114b88460060154856002015f8154811061148e5761148e613930565b5f918252602090912001546003870154600a8801546001600160a01b039283169290911690611fac565b60038401546114d19087906001600160a01b0316611ebf565b60018401546040805191825242602083015287917fb38583f2adb435cac858db9d3e8d3ca952ccb32307e2f3d0053b415d2d293481910160405180910390a25b505060015f5550505050565b6001546001600160a01b0361010090910416331461157d5760405162461bcd60e51b815260206004820181905260248201527f4f776e61626c653a2063616c6c6572206973206e6f7420746865206f776e65726044820152606401610673565b6001600160a01b0381166115f95760405162461bcd60e51b815260206004820152602660248201527f4f776e61626c653a206e6577206f776e657220697320746865207a65726f206160448201527f64647265737300000000000000000000000000000000000000000000000000006064820152608401610673565b6001546040516001600160a01b0380841692610100900416907f8be0079c531659141344cd1fd0a4f28419497f9722a3daafe3b4186f6b6457e0905f90a3600180546001600160a01b03909216610100027fffffffffffffffffffffff0000000000000000000000000000000000000000ff909216919091179055565b6040516001600160a01b03831660248201526044810182905261171e9084907fa9059cbb00000000000000000000000000000000000000000000000000000000906064015b60408051601f198184030181529190526020810180517bffffffffffffffffffffffffffffffffffffffffffffffffffffffff167fffffffff00000000000000000000000000000000000000000000000000000000909316929092179091525050565b505050565b5f610ca2825490565b5f825f0361173b57505f610ca2565b5f611746838561399d565b90508261175385836139b4565b146117c65760405162461bcd60e51b815260206004820152602160248201527f536166654d6174683a206d756c7469706c69636174696f6e206f766572666c6f60448201527f77000000000000000000000000000000000000000000000000000000000000006064820152608401610673565b9392505050565b8181101561181d5760405162461bcd60e51b815260206004820152601260248201527f6c657373206e617469766520666f7220747800000000000000000000000000006044820152606401610673565b875f0361186c5760405162461bcd60e51b815260206004820152600e60248201527f5a65726f20616d6f756e7420696e0000000000000000000000000000000000006044820152606401610673565b6001600160a01b0387161580159061188c57506001600160a01b03861615155b80156118aa5750856001600160a01b0316876001600160a01b031614155b6118f65760405162461bcd60e51b815260206004820152600e60248201527f496e76616c696420746f6b656e730000000000000000000000000000000000006044820152606401610673565b6001851015801561190b57506301e185588511155b6119575760405162461bcd60e51b815260206004820152601060248201527f496e76616c696420696e74657276616c000000000000000000000000000000006044820152606401610673565b60ff8460ff1611156119ab5760405162461bcd60e51b815260206004820152601560248201527f496e76616c6964206e756d206f66206f726465727300000000000000000000006044820152606401610673565b82511515806119bd5750602083015115155b15611a22578251158015906119d6575060208301518351105b611a225760405162461bcd60e51b815260206004820152601360248201527f496e76616c69642070726963652072616e6765000000000000000000000000006044820152606401610673565b5050505050505050565b6040805160028082526060820183525f928392919060208301908036833701905050905088815f81518110611a6357611a63613930565b60200260200101906001600160a01b031690816001600160a01b0316815250508781600181518110611a9757611a97613930565b60200260200101906001600160a01b031690816001600160a01b0316815250505f611ac28b83612526565b50925050505f8111611b165760405162461bcd60e51b815260206004820152601e60248201527f496e73756666696369656e74204c697175696469747920696e20706f6f6c00006044820152606401610673565b506008546040517fffffffffffffffffffffffffffffffffffffffff000000000000000000000000606087901b166020820152426034820152605481019190915260740160408051808303601f19018152828252805160209182012060088190559083018d90527fffffffffffffffffffffffffffffffffffffffff00000000000000000000000060608d811b8216938501939093528b831b811660548501529187901b9091166068830152607c82018990527fff0000000000000000000000000000000000000000000000000000000000000060f889901b16609c830152609d8201524360bd82015260dd0160408051601f1981840301815291905280516020909101209150611c28601083611e9d565b15611c755760405162461bcd60e51b815260206004820152600f60248201527f4f726465722069642065786973747300000000000000000000000000000000006044820152606401610673565b611c8a6001600160a01b038a1685308d612de7565b5f611c988b60ff8916612e38565b90505f604051806101a001604052808581526020018d8152602001848152602001876001600160a01b031681526020018a81526020014281526020018d81526020018960ff1681526020018960ff168152602001885f60028110611cfe57611cfe613930565b6020020151815260200188600160028110611d1b57611d1b613930565b60200201518152602001868152602001838152509050611d3c848783612e92565b604080518d81526001600160a01b038d811660208301528c81168284015260ff8b166060830152608082018c905291519188169186917f329ea8877957d9a6bc95ae3900bd5494970aa1252e257c6d72a1ce23e1b584bb919081900360a00190a37fa1e5d4a0d7fbbd7bc11e85131b092eaeb71c8bc618d53c05e37b9afbb433687781604051611dcc9190613860565b60405180910390a150505098975050505050505050565b60015460ff16611e355760405162461bcd60e51b815260206004820152601460248201527f5061757361626c653a206e6f74207061757365640000000000000000000000006044820152606401610673565b600180547fffffffffffffffffffffffffffffffffffffffffffffffffffffffffffffff001690557f5db9ee0a495bf2e6ff9c91a7834c1ba4fdd244a5e8aa4e537bd38aeae4b073aa335b6040516001600160a01b03909116815260200160405180910390a1565b5f81815260018301602052604081205415156117c6565b5f6117c68383613007565b6001600160a01b0381165f908152600d60209081526040808320600e83528184208685528352818420548452909152812055611efc6010836130a4565b505f828152600f602052604081208181556001810182905590611f2260028301826135a9565b506003810180547fffffffffffffffffffffffff00000000000000000000000000000000000000001690555f6004820181905560058201819055600682018190556007820180547fffffffffffffffffffffffffffffffffffffffffffffffffffffffffffff00001690556008820181905560098201819055600a8201819055600b909101555050565b6040516001600160a01b0383169082156108fc029083905f818181858888f19350505050158015611fdf573d5f803e3d5ffd5b50611ff46001600160a01b0384168386611676565b50505050565b60015460ff161561204d5760405162461bcd60e51b815260206004820152601060248201527f5061757361626c653a20706175736564000000000000000000000000000000006044820152606401610673565b600180547fffffffffffffffffffffffffffffffffffffffffffffffffffffffffffffff0016811790557f62e78cea01bee320cd4e420270b5ea74000d11b0c9f74754ebdbfc544b05a25833611e80565b5f818152600f60205260409020600b81015460068201548111156120c3575060068101545b600782018054600191905f906120dd90849060ff166139ec565b92506101000a81548160ff021916908360ff16021790555042826005018190555080826006015f828254612111919061398a565b925050819055505f61213a6127106121346007548561172c90919063ffffffff16565b90612e38565b905080600b5f856002015f8154811061215557612155613930565b5f9182526020808320909101546001600160a01b0316835282019290925260400181208054909190612188908490613a05565b909155506121989050818361398a565b91505f805f8061220286886002018054806020026020016040519081016040528092919081815260200182805480156121f857602002820191905f5260205f20905b81546001600160a01b031681526001909101906020018083116121da575b5050505050612526565b93509350935093505f82116122595760405162461bcd60e51b815260206004820152601e60248201527f496e73756666696369656e74204c697175696469747920696e20706f6f6c00006044820152606401610673565b6008870154156122ed578660080154811015801561227b575086600901548111155b6122ed5760405162461bcd60e51b815260206004820152602360248201527f507269636520446f65736e2774206c6965206265747765656e2074686520726160448201527f6e676500000000000000000000000000000000000000000000000000000000006064820152608401610673565b5f612363878960020180548060200260200160405190810160405280929190818152602001828054801561234857602002820191905f5260205f20905b81546001600160a01b0316815260019091019060200180831161232a575b5050505060038c01546001600160a01b0316905088886130af565b9050806123d85760405162461bcd60e51b815260206004820152602160248201527f496e737566666963696574204c697175696469747920696e2074686520706f6f60448201527f6c000000000000000000000000000000000000000000000000000000000000006064820152608401610673565b60408051602081018b9052908101889052606081018390524260808201524360a08201525f9060c00160408051601f1981840301815282825280516020918201208b8452908301879052908201859052426060830152915081908b907fad2e99392dc283414380c576281b0a970817175893f602f4615c16f9111d78a39060800160405180910390a350505050505050505050565b5f806124798385613a05565b9050838110156117c65760405162461bcd60e51b815260206004820152601b60248201527f536166654d6174683a206164646974696f6e206f766572666c6f7700000000006044820152606401610673565b5f8282111561251c5760405162461bcd60e51b815260206004820152601e60248201527f536166654d6174683a207375627472616374696f6e206f766572666c6f7700006044820152606401610673565b6117c6828461398a565b5f805f806125326135c7565b60408051606081810183526101f48252610bb860208301526127108284015260035492517fd06ca61f00000000000000000000000000000000000000000000000000000000815290926001600160a01b03169063d06ca61f9061259b908c908c90600401613a18565b5f60405180830381865afa9250505080156125d757506040513d5f823e601f3d908101601f191682016040526125d49190810190613a38565b60015b1561269e57506003546040517fd06ca61f0000000000000000000000000000000000000000000000000000000081526001600160a01b039091169063d06ca61f90612628908c908c90600401613a18565b5f60405180830381865afa158015612642573d5f803e3d5ffd5b505050506040513d5f823e601f3d908101601f191682016040526126699190810190613a38565b91508160018151811061267e5761267e613930565b6020026020010151835f6004811061269857612698613930565b60200201525b60055488516001600160a01b039091169063f7729d43908a905f906126c5576126c5613930565b60200260200101518a6001815181106126e0576126e0613930565b6020026020010151845f600381106126fa576126fa613930565b60200201516040517fffffffff0000000000000000000000000000000000000000000000000000000060e086901b1681526001600160a01b03938416600482015292909116602483015261ffff166044820152606481018c90525f608482015260a4016020604051808303815f875af1925050508015612797575060408051601f3d908101601f1916820190925261279491810190613ad9565b60015b156128a2575060055488516001600160a01b039091169063f7729d43908a905f906127c4576127c4613930565b60200260200101518a6001815181106127df576127df613930565b6020026020010151845f600381106127f9576127f9613930565b60200201516040517fffffffff0000000000000000000000000000000000000000000000000000000060e086901b1681526001600160a01b03938416600482015292909116602483015261ffff166044820152606481018c90525f608482015260a4016020604051808303815f875af1158015612878573d5f803e3d5ffd5b505050506040513d601f19601f8201168201806040525081019061289c9190613ad9565b60208401525b60055488516001600160a01b039091169063f7729d43908a905f906128c9576128c9613930565b60200260200101518a6001815181106128e4576128e4613930565b6020026020010151846001600381106128ff576128ff613930565b60200201516040517fffffffff0000000000000000000000000000000000000000000000000000000060e086901b1681526001600160a01b03938416600482015292909116602483015261ffff166044820152606481018c90525f608482015260a4016020604051808303815f875af192505050801561299c575060408051601f3d908101601f1916820190925261299991810190613ad9565b60015b15612aa8575060055488516001600160a01b039091169063f7729d43908a905f906129c9576129c9613930565b60200260200101518a6001815181106129e4576129e4613930565b6020026020010151846001600381106129ff576129ff613930565b60200201516040517fffffffff0000000000000000000000000000000000000000000000000000000060e086901b1681526001600160a01b03938416600482015292909116602483015261ffff166044820152606481018c90525f608482015260a4016020604051808303815f875af1158015612a7e573d5f803e3d5ffd5b505050506040513d601f19601f82011682018060405250810190612aa29190613ad9565b60408401525b60055488516001600160a01b039091169063f7729d43908a905f90612acf57612acf613930565b60200260200101518a600181518110612aea57612aea613930565b602002602001015184600260038110612b0557612b05613930565b60200201516040517fffffffff0000000000000000000000000000000000000000000000000000000060e086901b1681526001600160a01b03938416600482015292909116602483015261ffff166044820152606481018c90525f608482015260a4016020604051808303815f875af1925050508015612ba2575060408051601f3d908101601f19168201909252612b9f91810190613ad9565b60015b15612cae575060055488516001600160a01b039091169063f7729d43908a905f90612bcf57612bcf613930565b60200260200101518a600181518110612bea57612bea613930565b602002602001015184600260038110612c0557612c05613930565b60200201516040517fffffffff0000000000000000000000000000000000000000000000000000000060e086901b1681526001600160a01b03938416600482015292909116602483015261ffff166044820152606481018c90525f608482015260a4016020604051808303815f875af1158015612c84573d5f803e3d5ffd5b505050506040513d601f19601f82011682018060405250810190612ca89190613ad9565b60608401525b5f5b6004811015612d2e57838160048110612ccb57612ccb613930565b6020020151861015612d1e57838160048110612ce957612ce9613930565b60200201519097509450868015612d1e5781612d0660018361398a565b60038110612d1657612d16613930565b602002015196505b612d2781613af0565b9050612cb0565b505f885f81518110612d4257612d42613930565b60200260200101516001600160a01b031663313ce5676040518163ffffffff1660e01b8152600401602060405180830381865afa158015612d85573d5f803e3d5ffd5b505050506040513d601f19601f82011682018060405250810190612da99190613b27565b612db79060ff16600a613c60565b90505f8615612dcd57612dca8b88612e38565b90505b612dd7828261172c565b9550505050505092959194509250565b6040516001600160a01b0380851660248301528316604482015260648101829052611ff49085907f23b872dd00000000000000000000000000000000000000000000000000000000906084016116bb565b5f808211612e885760405162461bcd60e51b815260206004820152601a60248201527f536166654d6174683a206469766973696f6e206279207a65726f0000000000006044820152606401610673565b6117c682846139b4565b612e9d601084613324565b505f838152600f602090815260409182902083518155818401516001820155918301518051849392612ed69260028501929101906135e5565b5060608201516003820180547fffffffffffffffffffffffff0000000000000000000000000000000000000000166001600160a01b039283161790556080830151600483015560a0830151600583015560c0830151600683015560e08301516007830180546101008087015160ff9485167fffffffffffffffffffffffffffffffffffffffffffffffffffffffffffff000090931692909217939091160291909117905561012083015160088301556101408301516009830155610160830151600a83015561018090920151600b9091015582165f818152600d60209081526040808320600c808452828520805486529184528285208990558585528154600e85528386208a87528552928520839055948452939091526001929190612ffd908490613a05565b9091555050505050565b81545f90821061307f5760405162461bcd60e51b815260206004820152602260248201527f456e756d657261626c655365743a20696e646578206f7574206f6620626f756e60448201527f64730000000000000000000000000000000000000000000000000000000000006064820152608401610673565b825f01828154811061309357613093613930565b905f5260205f200154905092915050565b5f6117c6838361332f565b5f84516002146130bd575f80fd5b825f0361318c576003548551613109916001600160a01b031690889088905f906130e9576130e9613930565b60200260200101516001600160a01b03166134119092919063ffffffff16565b6003546040517f5c11d7950000000000000000000000000000000000000000000000000000000081526001600160a01b0390911690635c11d7959061315a9089905f908a908a904290600401613c6b565b5f604051808303815f87803b158015613171575f80fd5b505af1158015613183573d5f803e3d5ffd5b50505050613318565b60025485516131b1916001600160a01b031690889088905f906130e9576130e9613930565b5f604051806101000160405280875f815181106131d0576131d0613930565b60200260200101516001600160a01b03168152602001876001815181106131f9576131f9613930565b6020908102919091018101516001600160a01b03908116835261ffff8716838301528881166040808501919091524260608086019190915260808086018e90525f60a080880182905260c09788019190915260025484517f414bf38900000000000000000000000000000000000000000000000000000000815289518716600482015296890151861660248801529388015162ffffff1660448701529187015184166064860152860151608485015285015160a48401529284015160c483015260e0840151811660e483015292935091169063414bf38990610104016020604051808303815f875af11580156132f1573d5f803e3d5ffd5b505050506040513d601f19601f820116820180604052508101906133159190613ad9565b50505b50600195945050505050565b5f6117c6838361355d565b5f8181526001830160205260408120548015613408575f61335160018361398a565b85549091505f906133649060019061398a565b90505f865f01828154811061337b5761337b613930565b905f5260205f200154905080875f01848154811061339b5761339b613930565b5f918252602090912001556133b1836001613a05565b5f82815260018901602052604090205586548790806133d2576133d2613ca6565b600190038181905f5260205f20015f90559055866001015f8781526020019081526020015f205f90556001945050505050610ca2565b5f915050610ca2565b8015806134a257506040517fdd62ed3e0000000000000000000000000000000000000000000000000000000081523060048201526001600160a01b03838116602483015284169063dd62ed3e90604401602060405180830381865afa15801561347c573d5f803e3d5ffd5b505050506040513d601f19601f820116820180604052508101906134a09190613ad9565b155b6135145760405162461bcd60e51b815260206004820152603660248201527f5361666545524332303a20617070726f76652066726f6d206e6f6e2d7a65726f60448201527f20746f206e6f6e2d7a65726f20616c6c6f77616e6365000000000000000000006064820152608401610673565b6040516001600160a01b03831660248201526044810182905261171e9084907f095ea7b300000000000000000000000000000000000000000000000000000000906064016116bb565b5f8181526001830160205260408120546135a257508154600181810184555f848152602080822090930184905584548482528286019093526040902091909155610ca2565b505f610ca2565b5080545f8255905f5260205f20908101906135c49190613660565b50565b60405180608001604052806004906020820280368337509192915050565b828054828255905f5260205f20908101928215613650579160200282015b8281111561365057825182547fffffffffffffffffffffffff0000000000000000000000000000000000000000166001600160a01b03909116178255602090920191600190910190613603565b5061365c929150613660565b5090565b5b8082111561365c575f8155600101613661565b80356001600160a01b038116811461368a575f80fd5b919050565b5f6020828403121561369f575f80fd5b6117c682613674565b60ff811681146135c4575f80fd5b7f4e487b71000000000000000000000000000000000000000000000000000000005f52604160045260245ffd5b6040805190810167ffffffffffffffff81118282101715613706576137066136b6565b60405290565b604051601f8201601f1916810167ffffffffffffffff81118282101715613735576137356136b6565b604052919050565b5f805f805f8060e08789031215613752575f80fd5b863595506020613763818901613674565b955061377160408901613674565b9450606088013593506080880135613788816136a8565b925060bf88018913613798575f80fd5b6137a06136e3565b8060e08a018b8111156137b1575f80fd5b60a08b015b818110156137cd57803584529284019284016137b6565b50508093505050509295509295509295565b5f80604083850312156137f0575f80fd5b6137f983613674565b946020939093013593505050565b5f60208284031215613817575f80fd5b5035919050565b5f8151808452602080850194508084015f5b838110156138555781516001600160a01b031687529582019590820190600101613830565b509495945050505050565b6020815281516020820152602082015160408201525f60408301516101a08060608501526138926101c085018361381e565b915060608501516138ae60808601826001600160a01b03169052565b50608085015160a085015260a085015160c085015260c085015160e085015260e08501516101006138e38187018360ff169052565b86015190506101206138f98682018360ff169052565b8601516101408681019190915286015161016080870191909152860151610180808701919091529095015193019290925250919050565b7f4e487b71000000000000000000000000000000000000000000000000000000005f52603260045260245ffd5b7f4e487b71000000000000000000000000000000000000000000000000000000005f52601160045260245ffd5b81810381811115610ca257610ca261395d565b8082028115828204841417610ca257610ca261395d565b5f826139e7577f4e487b71000000000000000000000000000000000000000000000000000000005f52601260045260245ffd5b500490565b60ff8281168282160390811115610ca257610ca261395d565b80820180821115610ca257610ca261395d565b828152604060208201525f613a30604083018461381e565b949350505050565b5f6020808385031215613a49575f80fd5b825167ffffffffffffffff80821115613a60575f80fd5b818501915085601f830112613a73575f80fd5b815181811115613a8557613a856136b6565b8060051b9150613a9684830161370c565b8181529183018401918481019088841115613aaf575f80fd5b938501935b83851015613acd57845182529385019390850190613ab4565b98975050505050505050565b5f60208284031215613ae9575f80fd5b5051919050565b5f7fffffffffffffffffffffffffffffffffffffffffffffffffffffffffffffffff8203613b2057613b2061395d565b5060010190565b5f60208284031215613b37575f80fd5b81516117c6816136a8565b600181815b80851115613b9b57817fffffffffffffffffffffffffffffffffffffffffffffffffffffffffffffffff04821115613b8157613b8161395d565b80851615613b8e57918102915b93841c9390800290613b47565b509250929050565b5f82613bb157506001610ca2565b81613bbd57505f610ca2565b8160018114613bd35760028114613bdd57613bf9565b6001915050610ca2565b60ff841115613bee57613bee61395d565b50506001821b610ca2565b5060208310610133831016604e8410600b8410161715613c1c575081810a610ca2565b613c268383613b42565b807fffffffffffffffffffffffffffffffffffffffffffffffffffffffffffffffff04821115613c5857613c5861395d565b029392505050565b5f6117c68383613ba3565b85815284602082015260a060408201525f613c8960a083018661381e565b6001600160a01b0394909416606083015250608001529392505050565b7f4e487b71000000000000000000000000000000000000000000000000000000005f52603160045260245ffdfea264697066735822122099dd282e59894fad3eae3b84de3fba63a0d701b602d8bc33e5baab3ea61d53e564736f6c63430008140033",
			"opcodes": "PUSH1 0x80 PUSH1 0x40 MSTORE PUSH1 0x64 PUSH1 0x7 SSTORE PUSH0 PUSH1 0x8 SSTORE PUSH3 0x1E8480 PUSH1 0x9 SSTORE CALLVALUE DUP1 ISZERO PUSH3 0x20 JUMPI PUSH0 DUP1 REVERT JUMPDEST POP PUSH1 0x40 MLOAD PUSH3 0x3EAC CODESIZE SUB DUP1 PUSH3 0x3EAC DUP4 CODECOPY DUP2 ADD PUSH1 0x40 DUP2 SWAP1 MSTORE PUSH3 0x43 SWAP2 PUSH3 0x118 JUMP JUMPDEST PUSH1 0x1 PUSH0 DUP2 DUP2 SSTORE DUP2 SLOAD PUSH1 0x1 PUSH1 0x1 PUSH1 0xA8 SHL SUB NOT AND PUSH2 0x100 PUSH1 0x1 PUSH1 0x1 PUSH1 0xA0 SHL SUB DUP6 AND SWAP1 DUP2 MUL SWAP2 SWAP1 SWAP2 OR SWAP1 SWAP3 SSTORE PUSH1 0x40 MLOAD DUP4 SWAP3 SWAP2 SWAP1 PUSH32 0x8BE0079C531659141344CD1FD0A4F28419497F9722A3DAAFE3B4186F6B6457E0 SWAP1 DUP3 SWAP1 LOG3 POP POP PUSH1 0x2 DUP1 SLOAD PUSH1 0x1 PUSH1 0x1 PUSH1 0xA0 SHL SUB NOT SWAP1 DUP2 AND PUSH1 0x1 PUSH1 0x1 PUSH1 0xA0 SHL SUB SWAP8 DUP9 AND OR SWAP1 SWAP2 SSTORE PUSH1 0x4 DUP1 SLOAD DUP3 AND SWAP4 DUP8 AND SWAP4 SWAP1 SWAP4 OR SWAP1 SWAP3 SSTORE PUSH1 0x6 DUP1 SLOAD DUP4 AND SWAP2 DUP7 AND SWAP2 SWAP1 SWAP2 OR SWAP1 SSTORE PUSH1 0x5 DUP1 SLOAD DUP3 AND SWAP3 DUP6 AND SWAP3 SWAP1 SWAP3 OR SWAP1 SWAP2 SSTORE PUSH1 0x3 DUP1 SLOAD SWAP1 SWAP2 AND SWAP2 SWAP1 SWAP3 AND OR SWAP1 SSTORE PUSH3 0x195 JUMP JUMPDEST DUP1 MLOAD PUSH1 0x1 PUSH1 0x1 PUSH1 0xA0 SHL SUB DUP2 AND DUP2 EQ PUSH3 0x113 JUMPI PUSH0 DUP1 REVERT JUMPDEST SWAP2 SWAP1 POP JUMP JUMPDEST PUSH0 DUP1 PUSH0 DUP1 PUSH0 DUP1 PUSH1 0xC0 DUP8 DUP10 SUB SLT ISZERO PUSH3 0x12E JUMPI PUSH0 DUP1 REVERT JUMPDEST PUSH3 0x139 DUP8 PUSH3 0xFC JUMP JUMPDEST SWAP6 POP PUSH3 0x149 PUSH1 0x20 DUP9 ADD PUSH3 0xFC JUMP JUMPDEST SWAP5 POP PUSH3 0x159 PUSH1 0x40 DUP9 ADD PUSH3 0xFC JUMP JUMPDEST SWAP4 POP PUSH3 0x169 PUSH1 0x60 DUP9 ADD PUSH3 0xFC JUMP JUMPDEST SWAP3 POP PUSH3 0x179 PUSH1 0x80 DUP9 ADD PUSH3 0xFC JUMP JUMPDEST SWAP2 POP PUSH3 0x189 PUSH1 0xA0 DUP9 ADD PUSH3 0xFC JUMP JUMPDEST SWAP1 POP SWAP3 SWAP6 POP SWAP3 SWAP6 POP SWAP3 SWAP6 JUMP JUMPDEST PUSH2 0x3D09 DUP1 PUSH3 0x1A3 PUSH0 CODECOPY PUSH0 RETURN INVALID PUSH1 0x80 PUSH1 0x40 MSTORE PUSH1 0x4 CALLDATASIZE LT PUSH2 0x1BA JUMPI PUSH0 CALLDATALOAD PUSH1 0xE0 SHR DUP1 PUSH4 0x5C975ABB GT PUSH2 0xF2 JUMPI DUP1 PUSH4 0x8DA5CB5B GT PUSH2 0x92 JUMPI DUP1 PUSH4 0xA1E9B511 GT PUSH2 0x62 JUMPI DUP1 PUSH4 0xA1E9B511 EQ PUSH2 0x4F4 JUMPI DUP1 PUSH4 0xACED1661 EQ PUSH2 0x513 JUMPI DUP1 PUSH4 0xC6BBD5A7 EQ PUSH2 0x532 JUMPI DUP1 PUSH4 0xF2FDE38B EQ PUSH2 0x551 JUMPI PUSH0 DUP1 REVERT JUMPDEST DUP1 PUSH4 0x8DA5CB5B EQ PUSH2 0x475 JUMPI DUP1 PUSH4 0x9012C4A8 EQ PUSH2 0x497 JUMPI DUP1 PUSH4 0x95048D46 EQ PUSH2 0x4B6 JUMPI DUP1 PUSH4 0x97790217 EQ PUSH2 0x4D5 JUMPI PUSH0 DUP1 REVERT JUMPDEST DUP1 PUSH4 0x73A423D0 GT PUSH2 0xCD JUMPI DUP1 PUSH4 0x73A423D0 EQ PUSH2 0x3F8 JUMPI DUP1 PUSH4 0x7489EC23 EQ PUSH2 0x417 JUMPI DUP1 PUSH4 0x8456CB59 EQ PUSH2 0x436 JUMPI DUP1 PUSH4 0x8918298C EQ PUSH2 0x44A JUMPI PUSH0 DUP1 REVERT JUMPDEST DUP1 PUSH4 0x5C975ABB EQ PUSH2 0x3A3 JUMPI DUP1 PUSH4 0x66718524 EQ PUSH2 0x3C5 JUMPI DUP1 PUSH4 0x715018A6 EQ PUSH2 0x3E4 JUMPI PUSH0 DUP1 REVERT JUMPDEST DUP1 PUSH4 0x2C76D7A6 GT PUSH2 0x15D JUMPI DUP1 PUSH4 0x3F4BA83A GT PUSH2 0x138 JUMPI DUP1 PUSH4 0x3F4BA83A EQ PUSH2 0x318 JUMPI DUP1 PUSH4 0x530E3794 EQ PUSH2 0x32C JUMPI DUP1 PUSH4 0x54694A42 EQ PUSH2 0x362 JUMPI DUP1 PUSH4 0x5778472A EQ PUSH2 0x377 JUMPI PUSH0 DUP1 REVERT JUMPDEST DUP1 PUSH4 0x2C76D7A6 EQ PUSH2 0x2B0 JUMPI DUP1 PUSH4 0x2E3D1174 EQ PUSH2 0x2CF JUMPI DUP1 PUSH4 0x36888652 EQ PUSH2 0x2E2 JUMPI PUSH0 DUP1 REVERT JUMPDEST DUP1 PUSH4 0x14BFF9BD GT PUSH2 0x198 JUMPI DUP1 PUSH4 0x14BFF9BD EQ PUSH2 0x226 JUMPI DUP1 PUSH4 0x1694505E EQ PUSH2 0x23A JUMPI DUP1 PUSH4 0x1D834409 EQ PUSH2 0x271 JUMPI DUP1 PUSH4 0x1DB5C451 EQ PUSH2 0x285 JUMPI PUSH0 DUP1 REVERT JUMPDEST DUP1 PUSH4 0x1F9B871 EQ PUSH2 0x1BE JUMPI DUP1 PUSH4 0x4E57EB7 EQ PUSH2 0x1DF JUMPI DUP1 PUSH4 0xE8EEC7B EQ PUSH2 0x207 JUMPI JUMPDEST PUSH0 DUP1 REVERT JUMPDEST CALLVALUE DUP1 ISZERO PUSH2 0x1C9 JUMPI PUSH0 DUP1 REVERT JUMPDEST POP PUSH2 0x1DD PUSH2 0x1D8 CALLDATASIZE PUSH1 0x4 PUSH2 0x368F JUMP JUMPDEST PUSH2 0x570 JUMP JUMPDEST STOP JUMPDEST CALLVALUE DUP1 ISZERO PUSH2 0x1EA JUMPI PUSH0 DUP1 REVERT JUMPDEST POP PUSH2 0x1F4 PUSH1 0xA SLOAD DUP2 JUMP JUMPDEST PUSH1 0x40 MLOAD SWAP1 DUP2 MSTORE PUSH1 0x20 ADD JUMPDEST PUSH1 0x40 MLOAD DUP1 SWAP2 SUB SWAP1 RETURN JUMPDEST CALLVALUE DUP1 ISZERO PUSH2 0x212 JUMPI PUSH0 DUP1 REVERT JUMPDEST POP PUSH2 0x1DD PUSH2 0x221 CALLDATASIZE PUSH1 0x4 PUSH2 0x368F JUMP JUMPDEST PUSH2 0x617 JUMP JUMPDEST CALLVALUE DUP1 ISZERO PUSH2 0x231 JUMPI PUSH0 DUP1 REVERT JUMPDEST POP PUSH2 0x1DD PUSH2 0x70C JUMP JUMPDEST CALLVALUE DUP1 ISZERO PUSH2 0x245 JUMPI PUSH0 DUP1 REVERT JUMPDEST POP PUSH1 0x3 SLOAD PUSH2 0x259 SWAP1 PUSH1 0x1 PUSH1 0x1 PUSH1 0xA0 SHL SUB AND DUP2 JUMP JUMPDEST PUSH1 0x40 MLOAD PUSH1 0x1 PUSH1 0x1 PUSH1 0xA0 SHL SUB SWAP1 SWAP2 AND DUP2 MSTORE PUSH1 0x20 ADD PUSH2 0x1FE JUMP JUMPDEST CALLVALUE DUP1 ISZERO PUSH2 0x27C JUMPI PUSH0 DUP1 REVERT JUMPDEST POP PUSH2 0x1F4 PUSH2 0x7F5 JUMP JUMPDEST CALLVALUE DUP1 ISZERO PUSH2 0x290 JUMPI PUSH0 DUP1 REVERT JUMPDEST POP PUSH2 0x1F4 PUSH2 0x29F CALLDATASIZE PUSH1 0x4 PUSH2 0x368F JUMP JUMPDEST PUSH1 0xC PUSH1 0x20 MSTORE PUSH0 SWAP1 DUP2 MSTORE PUSH1 0x40 SWAP1 KECCAK256 SLOAD DUP2 JUMP JUMPDEST CALLVALUE DUP1 ISZERO PUSH2 0x2BB JUMPI PUSH0 DUP1 REVERT JUMPDEST POP PUSH1 0x2 SLOAD PUSH2 0x259 SWAP1 PUSH1 0x1 PUSH1 0x1 PUSH1 0xA0 SHL SUB AND DUP2 JUMP JUMPDEST PUSH2 0x1F4 PUSH2 0x2DD CALLDATASIZE PUSH1 0x4 PUSH2 0x373D JUMP JUMPDEST PUSH2 0x805 JUMP JUMPDEST CALLVALUE DUP1 ISZERO PUSH2 0x2ED JUMPI PUSH0 DUP1 REVERT JUMPDEST POP PUSH2 0x1F4 PUSH2 0x2FC CALLDATASIZE PUSH1 0x4 PUSH2 0x37DF JUMP JUMPDEST PUSH1 0xE PUSH1 0x20 SWAP1 DUP2 MSTORE PUSH0 SWAP3 DUP4 MSTORE PUSH1 0x40 DUP1 DUP5 KECCAK256 SWAP1 SWAP2 MSTORE SWAP1 DUP3 MSTORE SWAP1 KECCAK256 SLOAD DUP2 JUMP JUMPDEST CALLVALUE DUP1 ISZERO PUSH2 0x323 JUMPI PUSH0 DUP1 REVERT JUMPDEST POP PUSH2 0x1DD PUSH2 0x904 JUMP JUMPDEST CALLVALUE DUP1 ISZERO PUSH2 0x337 JUMPI PUSH0 DUP1 REVERT JUMPDEST POP PUSH2 0x1F4 PUSH2 0x346 CALLDATASIZE PUSH1 0x4 PUSH2 0x37DF JUMP JUMPDEST PUSH1 0xD PUSH1 0x20 SWAP1 DUP2 MSTORE PUSH0 SWAP3 DUP4 MSTORE PUSH1 0x40 DUP1 DUP5 KECCAK256 SWAP1 SWAP2 MSTORE SWAP1 DUP3 MSTORE SWAP1 KECCAK256 SLOAD DUP2 JUMP JUMPDEST CALLVALUE DUP1 ISZERO PUSH2 0x36D JUMPI PUSH0 DUP1 REVERT JUMPDEST POP PUSH2 0x1F4 PUSH1 0x9 SLOAD DUP2 JUMP JUMPDEST CALLVALUE DUP1 ISZERO PUSH2 0x382 JUMPI PUSH0 DUP1 REVERT JUMPDEST POP PUSH2 0x396 PUSH2 0x391 CALLDATASIZE PUSH1 0x4 PUSH2 0x3807 JUMP JUMPDEST PUSH2 0x96E JUMP JUMPDEST PUSH1 0x40 MLOAD PUSH2 0x1FE SWAP2 SWAP1 PUSH2 0x3860 JUMP JUMPDEST CALLVALUE DUP1 ISZERO PUSH2 0x3AE JUMPI PUSH0 DUP1 REVERT JUMPDEST POP PUSH1 0x1 SLOAD PUSH1 0xFF AND PUSH1 0x40 MLOAD SWAP1 ISZERO ISZERO DUP2 MSTORE PUSH1 0x20 ADD PUSH2 0x1FE JUMP JUMPDEST CALLVALUE DUP1 ISZERO PUSH2 0x3D0 JUMPI PUSH0 DUP1 REVERT JUMPDEST POP PUSH2 0x1DD PUSH2 0x3DF CALLDATASIZE PUSH1 0x4 PUSH2 0x368F JUMP JUMPDEST PUSH2 0xB36 JUMP JUMPDEST CALLVALUE DUP1 ISZERO PUSH2 0x3EF JUMPI PUSH0 DUP1 REVERT JUMPDEST POP PUSH2 0x1DD PUSH2 0xBD0 JUMP JUMPDEST CALLVALUE DUP1 ISZERO PUSH2 0x403 JUMPI PUSH0 DUP1 REVERT JUMPDEST POP PUSH2 0x1F4 PUSH2 0x412 CALLDATASIZE PUSH1 0x4 PUSH2 0x3807 JUMP JUMPDEST PUSH2 0xC96 JUMP JUMPDEST CALLVALUE DUP1 ISZERO PUSH2 0x422 JUMPI PUSH0 DUP1 REVERT JUMPDEST POP PUSH2 0x1DD PUSH2 0x431 CALLDATASIZE PUSH1 0x4 PUSH2 0x3807 JUMP JUMPDEST PUSH2 0xCA8 JUMP JUMPDEST CALLVALUE DUP1 ISZERO PUSH2 0x441 JUMPI PUSH0 DUP1 REVERT JUMPDEST POP PUSH2 0x1DD PUSH2 0xF2F JUMP JUMPDEST CALLVALUE DUP1 ISZERO PUSH2 0x455 JUMPI PUSH0 DUP1 REVERT JUMPDEST POP PUSH2 0x1F4 PUSH2 0x464 CALLDATASIZE PUSH1 0x4 PUSH2 0x368F JUMP JUMPDEST PUSH1 0xB PUSH1 0x20 MSTORE PUSH0 SWAP1 DUP2 MSTORE PUSH1 0x40 SWAP1 KECCAK256 SLOAD DUP2 JUMP JUMPDEST CALLVALUE DUP1 ISZERO PUSH2 0x480 JUMPI PUSH0 DUP1 REVERT JUMPDEST POP PUSH1 0x1 SLOAD PUSH2 0x100 SWAP1 DIV PUSH1 0x1 PUSH1 0x1 PUSH1 0xA0 SHL SUB AND PUSH2 0x259 JUMP JUMPDEST CALLVALUE DUP1 ISZERO PUSH2 0x4A2 JUMPI PUSH0 DUP1 REVERT JUMPDEST POP PUSH2 0x1DD PUSH2 0x4B1 CALLDATASIZE PUSH1 0x4 PUSH2 0x3807 JUMP JUMPDEST PUSH2 0xF97 JUMP JUMPDEST CALLVALUE DUP1 ISZERO PUSH2 0x4C1 JUMPI PUSH0 DUP1 REVERT JUMPDEST POP PUSH2 0x1DD PUSH2 0x4D0 CALLDATASIZE PUSH1 0x4 PUSH2 0x3807 JUMP JUMPDEST PUSH2 0xFFC JUMP JUMPDEST CALLVALUE DUP1 ISZERO PUSH2 0x4E0 JUMPI PUSH0 DUP1 REVERT JUMPDEST POP PUSH2 0x1DD PUSH2 0x4EF CALLDATASIZE PUSH1 0x4 PUSH2 0x368F JUMP JUMPDEST PUSH2 0x1219 JUMP JUMPDEST CALLVALUE DUP1 ISZERO PUSH2 0x4FF JUMPI PUSH0 DUP1 REVERT JUMPDEST POP PUSH2 0x1DD PUSH2 0x50E CALLDATASIZE PUSH1 0x4 PUSH2 0x3807 JUMP JUMPDEST PUSH2 0x12B3 JUMP JUMPDEST CALLVALUE DUP1 ISZERO PUSH2 0x51E JUMPI PUSH0 DUP1 REVERT JUMPDEST POP PUSH1 0x4 SLOAD PUSH2 0x259 SWAP1 PUSH1 0x1 PUSH1 0x1 PUSH1 0xA0 SHL SUB AND DUP2 JUMP JUMPDEST CALLVALUE DUP1 ISZERO PUSH2 0x53D JUMPI PUSH0 DUP1 REVERT JUMPDEST POP PUSH1 0x5 SLOAD PUSH2 0x259 SWAP1 PUSH1 0x1 PUSH1 0x1 PUSH1 0xA0 SHL SUB AND DUP2 JUMP JUMPDEST CALLVALUE DUP1 ISZERO PUSH2 0x55C JUMPI PUSH0 DUP1 REVERT JUMPDEST POP PUSH2 0x1DD PUSH2 0x56B CALLDATASIZE PUSH1 0x4 PUSH2 0x368F JUMP JUMPDEST PUSH2 0x151D JUMP JUMPDEST PUSH1 0x6 SLOAD PUSH1 0x1 PUSH1 0x1 PUSH1 0xA0 SHL SUB AND CALLER PUSH1 0x1 PUSH1 0x1 PUSH1 0xA0 SHL SUB AND EQ PUSH2 0x5BD JUMPI PUSH1 0x40 MLOAD PUSH32 0xCB0F603600000000000000000000000000000000000000000000000000000000 DUP2 MSTORE PUSH1 0x4 ADD PUSH1 0x40 MLOAD DUP1 SWAP2 SUB SWAP1 REVERT JUMPDEST PUSH1 0x6 SLOAD PUSH1 0x1 PUSH1 0x1 PUSH1 0xA0 SHL SUB AND CALLER EQ PUSH2 0x5D3 JUMPI PUSH0 DUP1 REVERT JUMPDEST PUSH1 0x6 SLOAD PUSH1 0x1 PUSH1 0x1 PUSH1 0xA0 SHL SUB DUP3 DUP2 AND PUSH0 DUP2 DUP2 MSTORE PUSH1 0xB PUSH1 0x20 MSTORE PUSH1 0x40 SWAP1 KECCAK256 SLOAD PUSH2 0x5FE SWAP4 SWAP2 SWAP3 SWAP1 SWAP2 AND SWAP1 PUSH2 0x1676 JUMP JUMPDEST PUSH1 0x1 PUSH1 0x1 PUSH1 0xA0 SHL SUB AND PUSH0 SWAP1 DUP2 MSTORE PUSH1 0xB PUSH1 0x20 MSTORE PUSH1 0x40 DUP2 KECCAK256 SSTORE JUMP JUMPDEST PUSH1 0x1 SLOAD PUSH1 0x1 PUSH1 0x1 PUSH1 0xA0 SHL SUB PUSH2 0x100 SWAP1 SWAP2 DIV AND CALLER EQ PUSH2 0x67C JUMPI PUSH1 0x40 MLOAD PUSH3 0x461BCD PUSH1 0xE5 SHL DUP2 MSTORE PUSH1 0x20 PUSH1 0x4 DUP3 ADD DUP2 SWAP1 MSTORE PUSH1 0x24 DUP3 ADD MSTORE PUSH32 0x4F776E61626C653A2063616C6C6572206973206E6F7420746865206F776E6572 PUSH1 0x44 DUP3 ADD MSTORE PUSH1 0x64 ADD JUMPDEST PUSH1 0x40 MLOAD DUP1 SWAP2 SUB SWAP1 REVERT JUMPDEST PUSH1 0x1 PUSH1 0x1 PUSH1 0xA0 SHL SUB DUP2 AND PUSH2 0x6D2 JUMPI PUSH1 0x40 MLOAD PUSH3 0x461BCD PUSH1 0xE5 SHL DUP2 MSTORE PUSH1 0x20 PUSH1 0x4 DUP3 ADD MSTORE PUSH1 0xF PUSH1 0x24 DUP3 ADD MSTORE PUSH32 0x496E76616C696420616464726573730000000000000000000000000000000000 PUSH1 0x44 DUP3 ADD MSTORE PUSH1 0x64 ADD PUSH2 0x673 JUMP JUMPDEST PUSH1 0x2 DUP1 SLOAD PUSH32 0xFFFFFFFFFFFFFFFFFFFFFFFF0000000000000000000000000000000000000000 AND PUSH1 0x1 PUSH1 0x1 PUSH1 0xA0 SHL SUB SWAP3 SWAP1 SWAP3 AND SWAP2 SWAP1 SWAP2 OR SWAP1 SSTORE JUMP JUMPDEST PUSH1 0x4 SLOAD PUSH1 0x1 PUSH1 0x1 PUSH1 0xA0 SHL SUB AND CALLER PUSH1 0x1 PUSH1 0x1 PUSH1 0xA0 SHL SUB AND EQ PUSH2 0x759 JUMPI PUSH1 0x40 MLOAD PUSH32 0xCB0F603600000000000000000000000000000000000000000000000000000000 DUP2 MSTORE PUSH1 0x4 ADD PUSH1 0x40 MLOAD DUP1 SWAP2 SUB SWAP1 REVERT JUMPDEST PUSH1 0x2 PUSH0 SLOAD SUB PUSH2 0x7AA JUMPI PUSH1 0x40 MLOAD PUSH3 0x461BCD PUSH1 0xE5 SHL DUP2 MSTORE PUSH1 0x20 PUSH1 0x4 DUP3 ADD MSTORE PUSH1 0x1F PUSH1 0x24 DUP3 ADD MSTORE PUSH32 0x5265656E7472616E637947756172643A207265656E7472616E742063616C6C00 PUSH1 0x44 DUP3 ADD MSTORE PUSH1 0x64 ADD PUSH2 0x673 JUMP JUMPDEST PUSH1 0x2 PUSH0 SWAP1 DUP2 SSTORE PUSH1 0x4 SLOAD PUSH1 0xA SLOAD PUSH1 0x40 MLOAD PUSH1 0x1 PUSH1 0x1 PUSH1 0xA0 SHL SUB SWAP1 SWAP3 AND SWAP3 DUP2 ISZERO PUSH2 0x8FC MUL SWAP3 SWAP1 DUP2 DUP2 DUP2 DUP6 DUP9 DUP9 CALL SWAP4 POP POP POP POP ISZERO DUP1 ISZERO PUSH2 0x7E8 JUMPI RETURNDATASIZE PUSH0 DUP1 RETURNDATACOPY RETURNDATASIZE PUSH0 REVERT JUMPDEST POP PUSH0 PUSH1 0xA DUP2 SWAP1 SSTORE PUSH1 0x1 SWAP1 SSTORE JUMP JUMPDEST PUSH0 PUSH2 0x800 PUSH1 0x10 PUSH2 0x1723 JUMP JUMPDEST SWAP1 POP SWAP1 JUMP JUMPDEST PUSH0 PUSH2 0x812 PUSH1 0x1 SLOAD PUSH1 0xFF AND SWAP1 JUMP JUMPDEST ISZERO PUSH2 0x85F JUMPI PUSH1 0x40 MLOAD PUSH3 0x461BCD PUSH1 0xE5 SHL DUP2 MSTORE PUSH1 0x20 PUSH1 0x4 DUP3 ADD MSTORE PUSH1 0x10 PUSH1 0x24 DUP3 ADD MSTORE PUSH32 0x5061757361626C653A2070617573656400000000000000000000000000000000 PUSH1 0x44 DUP3 ADD MSTORE PUSH1 0x64 ADD PUSH2 0x673 JUMP JUMPDEST PUSH1 0x2 PUSH0 SLOAD SUB PUSH2 0x8B0 JUMPI PUSH1 0x40 MLOAD PUSH3 0x461BCD PUSH1 0xE5 SHL DUP2 MSTORE PUSH1 0x20 PUSH1 0x4 DUP3 ADD MSTORE PUSH1 0x1F PUSH1 0x24 DUP3 ADD MSTORE PUSH32 0x5265656E7472616E637947756172643A207265656E7472616E742063616C6C00 PUSH1 0x44 DUP3 ADD MSTORE PUSH1 0x64 ADD PUSH2 0x673 JUMP JUMPDEST PUSH1 0x2 PUSH0 SWAP1 DUP2 SSTORE PUSH1 0x9 SLOAD PUSH2 0x8D2 SWAP1 PUSH1 0xFF DUP7 AND SWAP1 PUSH2 0x8CC SWAP1 GASPRICE PUSH2 0x172C JUMP JUMPDEST SWAP1 PUSH2 0x172C JUMP JUMPDEST SWAP1 POP PUSH2 0x8E4 DUP9 DUP9 DUP9 DUP9 DUP9 DUP9 DUP8 CALLVALUE PUSH2 0x17CD JUMP JUMPDEST POP PUSH2 0x8F5 DUP8 DUP8 DUP8 DUP8 DUP8 DUP8 CALLER CALLVALUE PUSH2 0x1A2C JUMP JUMPDEST PUSH1 0x1 PUSH0 SSTORE SWAP8 SWAP7 POP POP POP POP POP POP POP JUMP JUMPDEST PUSH1 0x1 SLOAD PUSH1 0x1 PUSH1 0x1 PUSH1 0xA0 SHL SUB PUSH2 0x100 SWAP1 SWAP2 DIV AND CALLER EQ PUSH2 0x964 JUMPI PUSH1 0x40 MLOAD PUSH3 0x461BCD PUSH1 0xE5 SHL DUP2 MSTORE PUSH1 0x20 PUSH1 0x4 DUP3 ADD DUP2 SWAP1 MSTORE PUSH1 0x24 DUP3 ADD MSTORE PUSH32 0x4F776E61626C653A2063616C6C6572206973206E6F7420746865206F776E6572 PUSH1 0x44 DUP3 ADD MSTORE PUSH1 0x64 ADD PUSH2 0x673 JUMP JUMPDEST PUSH2 0x96C PUSH2 0x1DE3 JUMP JUMPDEST JUMP JUMPDEST PUSH2 0x9DF PUSH1 0x40 MLOAD DUP1 PUSH2 0x1A0 ADD PUSH1 0x40 MSTORE DUP1 PUSH0 DUP1 NOT AND DUP2 MSTORE PUSH1 0x20 ADD PUSH0 DUP2 MSTORE PUSH1 0x20 ADD PUSH1 0x60 DUP2 MSTORE PUSH1 0x20 ADD PUSH0 PUSH1 0x1 PUSH1 0x1 PUSH1 0xA0 SHL SUB AND DUP2 MSTORE PUSH1 0x20 ADD PUSH0 DUP2 MSTORE PUSH1 0x20 ADD PUSH0 DUP2 MSTORE PUSH1 0x20 ADD PUSH0 DUP2 MSTORE PUSH1 0x20 ADD PUSH0 PUSH1 0xFF AND DUP2 MSTORE PUSH1 0x20 ADD PUSH0 PUSH1 0xFF AND DUP2 MSTORE PUSH1 0x20 ADD PUSH0 DUP2 MSTORE PUSH1 0x20 ADD PUSH0 DUP2 MSTORE PUSH1 0x20 ADD PUSH0 DUP2 MSTORE PUSH1 0x20 ADD PUSH0 DUP2 MSTORE POP SWAP1 JUMP JUMPDEST PUSH2 0x9EA PUSH1 0x10 DUP4 PUSH2 0x1E9D JUMP JUMPDEST PUSH2 0xA36 JUMPI PUSH1 0x40 MLOAD PUSH3 0x461BCD PUSH1 0xE5 SHL DUP2 MSTORE PUSH1 0x20 PUSH1 0x4 DUP3 ADD MSTORE PUSH1 0x1B PUSH1 0x24 DUP3 ADD MSTORE PUSH32 0x517565727920666F72206E6F6E6578697374656E74206F726465720000000000 PUSH1 0x44 DUP3 ADD MSTORE PUSH1 0x64 ADD PUSH2 0x673 JUMP JUMPDEST PUSH0 DUP3 DUP2 MSTORE PUSH1 0xF PUSH1 0x20 SWAP1 DUP2 MSTORE PUSH1 0x40 SWAP2 DUP3 SWAP1 KECCAK256 DUP3 MLOAD PUSH2 0x1A0 DUP2 ADD DUP5 MSTORE DUP2 SLOAD DUP2 MSTORE PUSH1 0x1 DUP3 ADD SLOAD DUP2 DUP5 ADD MSTORE PUSH1 0x2 DUP3 ADD DUP1 SLOAD DUP6 MLOAD DUP2 DUP7 MUL DUP2 ADD DUP7 ADD DUP8 MSTORE DUP2 DUP2 MSTORE SWAP3 SWAP6 SWAP4 SWAP5 SWAP4 DUP7 ADD SWAP4 DUP4 ADD DUP3 DUP3 DUP1 ISZERO PUSH2 0xAB0 JUMPI PUSH1 0x20 MUL DUP3 ADD SWAP2 SWAP1 PUSH0 MSTORE PUSH1 0x20 PUSH0 KECCAK256 SWAP1 JUMPDEST DUP2 SLOAD PUSH1 0x1 PUSH1 0x1 PUSH1 0xA0 SHL SUB AND DUP2 MSTORE PUSH1 0x1 SWAP1 SWAP2 ADD SWAP1 PUSH1 0x20 ADD DUP1 DUP4 GT PUSH2 0xA92 JUMPI JUMPDEST POP POP POP SWAP2 DUP4 MSTORE POP POP PUSH1 0x3 DUP3 ADD SLOAD PUSH1 0x1 PUSH1 0x1 PUSH1 0xA0 SHL SUB AND PUSH1 0x20 DUP3 ADD MSTORE PUSH1 0x4 DUP3 ADD SLOAD PUSH1 0x40 DUP3 ADD MSTORE PUSH1 0x5 DUP3 ADD SLOAD PUSH1 0x60 DUP3 ADD MSTORE PUSH1 0x6 DUP3 ADD SLOAD PUSH1 0x80 DUP3 ADD MSTORE PUSH1 0x7 DUP3 ADD SLOAD PUSH1 0xFF DUP1 DUP3 AND PUSH1 0xA0 DUP5 ADD MSTORE PUSH2 0x100 SWAP2 DUP3 SWAP1 DIV AND PUSH1 0xC0 DUP4 ADD MSTORE PUSH1 0x8 DUP4 ADD SLOAD PUSH1 0xE0 DUP4 ADD MSTORE PUSH1 0x9 DUP4 ADD SLOAD SWAP1 DUP3 ADD MSTORE PUSH1 0xA DUP3 ADD SLOAD PUSH2 0x120 DUP3 ADD MSTORE PUSH1 0xB SWAP1 SWAP2 ADD SLOAD PUSH2 0x140 SWAP1 SWAP2 ADD MSTORE SWAP3 SWAP2 POP POP JUMP JUMPDEST PUSH1 0x1 SLOAD PUSH1 0x1 PUSH1 0x1 PUSH1 0xA0 SHL SUB PUSH2 0x100 SWAP1 SWAP2 DIV AND CALLER EQ PUSH2 0xB96 JUMPI PUSH1 0x40 MLOAD PUSH3 0x461BCD PUSH1 0xE5 SHL DUP2 MSTORE PUSH1 0x20 PUSH1 0x4 DUP3 ADD DUP2 SWAP1 MSTORE PUSH1 0x24 DUP3 ADD MSTORE PUSH32 0x4F776E61626C653A2063616C6C6572206973206E6F7420746865206F776E6572 PUSH1 0x44 DUP3 ADD MSTORE PUSH1 0x64 ADD PUSH2 0x673 JUMP JUMPDEST PUSH1 0x6 DUP1 SLOAD PUSH32 0xFFFFFFFFFFFFFFFFFFFFFFFF0000000000000000000000000000000000000000 AND PUSH1 0x1 PUSH1 0x1 PUSH1 0xA0 SHL SUB SWAP3 SWAP1 SWAP3 AND SWAP2 SWAP1 SWAP2 OR SWAP1 SSTORE JUMP JUMPDEST PUSH1 0x1 SLOAD PUSH1 0x1 PUSH1 0x1 PUSH1 0xA0 SHL SUB PUSH2 0x100 SWAP1 SWAP2 DIV AND CALLER EQ PUSH2 0xC30 JUMPI PUSH1 0x40 MLOAD PUSH3 0x461BCD PUSH1 0xE5 SHL DUP2 MSTORE PUSH1 0x20 PUSH1 0x4 DUP3 ADD DUP2 SWAP1 MSTORE PUSH1 0x24 DUP3 ADD MSTORE PUSH32 0x4F776E61626C653A2063616C6C6572206973206E6F7420746865206F776E6572 PUSH1 0x44 DUP3 ADD MSTORE PUSH1 0x64 ADD PUSH2 0x673 JUMP JUMPDEST PUSH1 0x1 SLOAD PUSH1 0x40 MLOAD PUSH0 SWAP2 PUSH2 0x100 SWAP1 DIV PUSH1 0x1 PUSH1 0x1 PUSH1 0xA0 SHL SUB AND SWAP1 PUSH32 0x8BE0079C531659141344CD1FD0A4F28419497F9722A3DAAFE3B4186F6B6457E0 SWAP1 DUP4 SWAP1 LOG3 PUSH1 0x1 DUP1 SLOAD PUSH32 0xFFFFFFFFFFFFFFFFFFFFFF0000000000000000000000000000000000000000FF AND SWAP1 SSTORE JUMP JUMPDEST PUSH0 PUSH2 0xCA2 PUSH1 0x10 DUP4 PUSH2 0x1EB4 JUMP JUMPDEST SWAP3 SWAP2 POP POP JUMP JUMPDEST PUSH1 0x2 PUSH0 SLOAD SUB PUSH2 0xCF9 JUMPI PUSH1 0x40 MLOAD PUSH3 0x461BCD PUSH1 0xE5 SHL DUP2 MSTORE PUSH1 0x20 PUSH1 0x4 DUP3 ADD MSTORE PUSH1 0x1F PUSH1 0x24 DUP3 ADD MSTORE PUSH32 0x5265656E7472616E637947756172643A207265656E7472616E742063616C6C00 PUSH1 0x44 DUP3 ADD MSTORE PUSH1 0x64 ADD PUSH2 0x673 JUMP JUMPDEST PUSH1 0x2 PUSH0 SSTORE PUSH2 0xD08 PUSH1 0x10 DUP3 PUSH2 0x1E9D JUMP JUMPDEST PUSH2 0xD54 JUMPI PUSH1 0x40 MLOAD PUSH3 0x461BCD PUSH1 0xE5 SHL DUP2 MSTORE PUSH1 0x20 PUSH1 0x4 DUP3 ADD MSTORE PUSH1 0x14 PUSH1 0x24 DUP3 ADD MSTORE PUSH32 0x4F7264657220646F6573206E6F74206578697374000000000000000000000000 PUSH1 0x44 DUP3 ADD MSTORE PUSH1 0x64 ADD PUSH2 0x673 JUMP JUMPDEST PUSH0 DUP2 DUP2 MSTORE PUSH1 0xF PUSH1 0x20 SWAP1 DUP2 MSTORE PUSH1 0x40 DUP1 DUP4 KECCAK256 DUP2 MLOAD PUSH2 0x1A0 DUP2 ADD DUP4 MSTORE DUP2 SLOAD DUP2 MSTORE PUSH1 0x1 DUP3 ADD SLOAD DUP2 DUP6 ADD MSTORE PUSH1 0x2 DUP3 ADD DUP1 SLOAD DUP5 MLOAD DUP2 DUP8 MUL DUP2 ADD DUP8 ADD DUP7 MSTORE DUP2 DUP2 MSTORE SWAP3 SWAP6 SWAP4 SWAP5 DUP7 ADD SWAP4 DUP4 ADD DUP3 DUP3 DUP1 ISZERO PUSH2 0xDCC JUMPI PUSH1 0x20 MUL DUP3 ADD SWAP2 SWAP1 PUSH0 MSTORE PUSH1 0x20 PUSH0 KECCAK256 SWAP1 JUMPDEST DUP2 SLOAD PUSH1 0x1 PUSH1 0x1 PUSH1 0xA0 SHL SUB AND DUP2 MSTORE PUSH1 0x1 SWAP1 SWAP2 ADD SWAP1 PUSH1 0x20 ADD DUP1 DUP4 GT PUSH2 0xDAE JUMPI JUMPDEST POP POP POP SWAP2 DUP4 MSTORE POP POP PUSH1 0x3 DUP3 ADD SLOAD PUSH1 0x1 PUSH1 0x1 PUSH1 0xA0 SHL SUB AND PUSH1 0x20 DUP3 ADD MSTORE PUSH1 0x4 DUP3 ADD SLOAD PUSH1 0x40 DUP3 ADD MSTORE PUSH1 0x5 DUP3 ADD SLOAD PUSH1 0x60 DUP3 ADD MSTORE PUSH1 0x6 DUP3 ADD SLOAD PUSH1 0x80 DUP3 ADD MSTORE PUSH1 0x7 DUP3 ADD SLOAD PUSH1 0xFF DUP1 DUP3 AND PUSH1 0xA0 DUP5 ADD MSTORE PUSH2 0x100 SWAP2 DUP3 SWAP1 DIV AND PUSH1 0xC0 DUP4 ADD MSTORE PUSH1 0x8 DUP4 ADD SLOAD PUSH1 0xE0 DUP4 ADD MSTORE PUSH1 0x9 DUP4 ADD SLOAD SWAP1 DUP3 ADD MSTORE PUSH1 0xA DUP3 ADD SLOAD PUSH2 0x120 DUP3 ADD MSTORE PUSH1 0xB SWAP1 SWAP2 ADD SLOAD PUSH2 0x140 SWAP1 SWAP2 ADD MSTORE SWAP1 POP CALLER PUSH1 0x1 PUSH1 0x1 PUSH1 0xA0 SHL SUB AND DUP2 PUSH1 0x60 ADD MLOAD PUSH1 0x1 PUSH1 0x1 PUSH1 0xA0 SHL SUB AND EQ PUSH2 0xEB3 JUMPI PUSH1 0x40 MLOAD PUSH3 0x461BCD PUSH1 0xE5 SHL DUP2 MSTORE PUSH1 0x20 PUSH1 0x4 DUP3 ADD MSTORE PUSH1 0xE PUSH1 0x24 DUP3 ADD MSTORE PUSH32 0x496E76616C696420616363657373000000000000000000000000000000000000 PUSH1 0x44 DUP3 ADD MSTORE PUSH1 0x64 ADD PUSH2 0x673 JUMP JUMPDEST PUSH0 DUP2 PUSH1 0x40 ADD MLOAD PUSH0 DUP2 MLOAD DUP2 LT PUSH2 0xECA JUMPI PUSH2 0xECA PUSH2 0x3930 JUMP JUMPDEST PUSH1 0x20 MUL PUSH1 0x20 ADD ADD MLOAD SWAP1 POP PUSH0 DUP3 PUSH2 0x160 ADD MLOAD SWAP1 POP PUSH2 0xEE7 DUP5 CALLER PUSH2 0x1EBF JUMP JUMPDEST PUSH2 0xEFB DUP4 PUSH1 0xC0 ADD MLOAD DUP4 DUP6 PUSH1 0x60 ADD MLOAD DUP5 PUSH2 0x1FAC JUMP JUMPDEST PUSH1 0x40 MLOAD DUP5 SWAP1 PUSH32 0x5152ABF959F6564662358C2E52B702259B78BAC5EE7842A0F01937E670EFCC7D SWAP1 PUSH0 SWAP1 LOG2 POP POP PUSH1 0x1 PUSH0 SSTORE POP POP JUMP JUMPDEST PUSH1 0x1 SLOAD PUSH1 0x1 PUSH1 0x1 PUSH1 0xA0 SHL SUB PUSH2 0x100 SWAP1 SWAP2 DIV AND CALLER EQ PUSH2 0xF8F JUMPI PUSH1 0x40 MLOAD PUSH3 0x461BCD PUSH1 0xE5 SHL DUP2 MSTORE PUSH1 0x20 PUSH1 0x4 DUP3 ADD DUP2 SWAP1 MSTORE PUSH1 0x24 DUP3 ADD MSTORE PUSH32 0x4F776E61626C653A2063616C6C6572206973206E6F7420746865206F776E6572 PUSH1 0x44 DUP3 ADD MSTORE PUSH1 0x64 ADD PUSH2 0x673 JUMP JUMPDEST PUSH2 0x96C PUSH2 0x1FFA JUMP JUMPDEST PUSH1 0x1 SLOAD PUSH1 0x1 PUSH1 0x1 PUSH1 0xA0 SHL SUB PUSH2 0x100 SWAP1 SWAP2 DIV AND CALLER EQ PUSH2 0xFF7 JUMPI PUSH1 0x40 MLOAD PUSH3 0x461BCD PUSH1 0xE5 SHL DUP2 MSTORE PUSH1 0x20 PUSH1 0x4 DUP3 ADD DUP2 SWAP1 MSTORE PUSH1 0x24 DUP3 ADD MSTORE PUSH32 0x4F776E61626C653A2063616C6C6572206973206E6F7420746865206F776E6572 PUSH1 0x44 DUP3 ADD MSTORE PUSH1 0x64 ADD PUSH2 0x673 JUMP JUMPDEST PUSH1 0x7 SSTORE JUMP JUMPDEST PUSH1 0x4 SLOAD PUSH1 0x1 PUSH1 0x1 PUSH1 0xA0 SHL SUB AND CALLER PUSH1 0x1 PUSH1 0x1 PUSH1 0xA0 SHL SUB AND EQ PUSH2 0x1049 JUMPI PUSH1 0x40 MLOAD PUSH32 0xCB0F603600000000000000000000000000000000000000000000000000000000 DUP2 MSTORE PUSH1 0x4 ADD PUSH1 0x40 MLOAD DUP1 SWAP2 SUB SWAP1 REVERT JUMPDEST PUSH2 0x1054 PUSH1 0x10 DUP3 PUSH2 0x1E9D JUMP JUMPDEST PUSH2 0x10A0 JUMPI PUSH1 0x40 MLOAD PUSH3 0x461BCD PUSH1 0xE5 SHL DUP2 MSTORE PUSH1 0x20 PUSH1 0x4 DUP3 ADD MSTORE PUSH1 0x14 PUSH1 0x24 DUP3 ADD MSTORE PUSH32 0x4F7264657220646F6573206E6F74206578697374000000000000000000000000 PUSH1 0x44 DUP3 ADD MSTORE PUSH1 0x64 ADD PUSH2 0x673 JUMP JUMPDEST PUSH0 DUP2 DUP2 MSTORE PUSH1 0xF PUSH1 0x20 SWAP1 DUP2 MSTORE PUSH1 0x40 DUP1 DUP4 KECCAK256 DUP2 MLOAD PUSH2 0x1A0 DUP2 ADD DUP4 MSTORE DUP2 SLOAD DUP2 MSTORE PUSH1 0x1 DUP3 ADD SLOAD DUP2 DUP6 ADD MSTORE PUSH1 0x2 DUP3 ADD DUP1 SLOAD DUP5 MLOAD DUP2 DUP8 MUL DUP2 ADD DUP8 ADD DUP7 MSTORE DUP2 DUP2 MSTORE SWAP3 SWAP6 SWAP4 SWAP5 DUP7 ADD SWAP4 DUP4 ADD DUP3 DUP3 DUP1 ISZERO PUSH2 0x1118 JUMPI PUSH1 0x20 MUL DUP3 ADD SWAP2 SWAP1 PUSH0 MSTORE PUSH1 0x20 PUSH0 KECCAK256 SWAP1 JUMPDEST DUP2 SLOAD PUSH1 0x1 PUSH1 0x1 PUSH1 0xA0 SHL SUB AND DUP2 MSTORE PUSH1 0x1 SWAP1 SWAP2 ADD SWAP1 PUSH1 0x20 ADD DUP1 DUP4 GT PUSH2 0x10FA JUMPI JUMPDEST POP POP POP SWAP2 DUP4 MSTORE POP POP PUSH1 0x3 DUP3 ADD SLOAD PUSH1 0x1 PUSH1 0x1 PUSH1 0xA0 SHL SUB AND PUSH1 0x20 DUP3 ADD MSTORE PUSH1 0x4 DUP3 ADD SLOAD PUSH1 0x40 DUP1 DUP4 ADD SWAP2 SWAP1 SWAP2 MSTORE PUSH1 0x5 DUP4 ADD SLOAD PUSH1 0x60 DUP4 ADD MSTORE PUSH1 0x6 DUP4 ADD SLOAD PUSH1 0x80 DUP4 ADD MSTORE PUSH1 0x7 DUP4 ADD SLOAD PUSH1 0xFF DUP1 DUP3 AND PUSH1 0xA0 DUP6 ADD MSTORE PUSH2 0x100 SWAP2 DUP3 SWAP1 DIV AND PUSH1 0xC0 DUP5 ADD MSTORE PUSH1 0x8 DUP5 ADD SLOAD PUSH1 0xE0 DUP5 ADD MSTORE PUSH1 0x9 DUP5 ADD SLOAD SWAP1 DUP4 ADD MSTORE PUSH1 0xA DUP4 ADD SLOAD PUSH2 0x120 DUP4 ADD MSTORE PUSH1 0xB SWAP1 SWAP3 ADD SLOAD PUSH2 0x140 SWAP1 SWAP2 ADD MSTORE DUP2 ADD MLOAD DUP1 MLOAD SWAP2 SWAP3 POP PUSH0 SWAP2 DUP3 SWAP1 PUSH2 0x11B4 JUMPI PUSH2 0x11B4 PUSH2 0x3930 JUMP JUMPDEST PUSH1 0x20 MUL PUSH1 0x20 ADD ADD MLOAD SWAP1 POP PUSH0 DUP3 PUSH2 0x160 ADD MLOAD SWAP1 POP PUSH2 0x11D5 DUP5 DUP5 PUSH1 0x60 ADD MLOAD PUSH2 0x1EBF JUMP JUMPDEST PUSH2 0x11E9 DUP4 PUSH1 0xC0 ADD MLOAD DUP4 DUP6 PUSH1 0x60 ADD MLOAD DUP5 PUSH2 0x1FAC JUMP JUMPDEST PUSH1 0x40 MLOAD DUP5 SWAP1 PUSH32 0x5152ABF959F6564662358C2E52B702259B78BAC5EE7842A0F01937E670EFCC7D SWAP1 PUSH0 SWAP1 LOG2 POP POP POP POP JUMP JUMPDEST PUSH1 0x1 SLOAD PUSH1 0x1 PUSH1 0x1 PUSH1 0xA0 SHL SUB PUSH2 0x100 SWAP1 SWAP2 DIV AND CALLER EQ PUSH2 0x1279 JUMPI PUSH1 0x40 MLOAD PUSH3 0x461BCD PUSH1 0xE5 SHL DUP2 MSTORE PUSH1 0x20 PUSH1 0x4 DUP3 ADD DUP2 SWAP1 MSTORE PUSH1 0x24 DUP3 ADD MSTORE PUSH32 0x4F776E61626C653A2063616C6C6572206973206E6F7420746865206F776E6572 PUSH1 0x44 DUP3 ADD MSTORE PUSH1 0x64 ADD PUSH2 0x673 JUMP JUMPDEST PUSH1 0x4 DUP1 SLOAD PUSH32 0xFFFFFFFFFFFFFFFFFFFFFFFF0000000000000000000000000000000000000000 AND PUSH1 0x1 PUSH1 0x1 PUSH1 0xA0 SHL SUB SWAP3 SWAP1 SWAP3 AND SWAP2 SWAP1 SWAP2 OR SWAP1 SSTORE JUMP JUMPDEST PUSH1 0x2 PUSH0 SLOAD SUB PUSH2 0x1304 JUMPI PUSH1 0x40 MLOAD PUSH3 0x461BCD PUSH1 0xE5 SHL DUP2 MSTORE PUSH1 0x20 PUSH1 0x4 DUP3 ADD MSTORE PUSH1 0x1F PUSH1 0x24 DUP3 ADD MSTORE PUSH32 0x5265656E7472616E637947756172643A207265656E7472616E742063616C6C00 PUSH1 0x44 DUP3 ADD MSTORE PUSH1 0x64 ADD PUSH2 0x673 JUMP JUMPDEST PUSH1 0x2 PUSH0 SSTORE PUSH1 0x4 SLOAD PUSH1 0x1 PUSH1 0x1 PUSH1 0xA0 SHL SUB AND CALLER PUSH1 0x1 PUSH1 0x1 PUSH1 0xA0 SHL SUB AND EQ PUSH2 0x1355 JUMPI PUSH1 0x40 MLOAD PUSH32 0xCB0F603600000000000000000000000000000000000000000000000000000000 DUP2 MSTORE PUSH1 0x4 ADD PUSH1 0x40 MLOAD DUP1 SWAP2 SUB SWAP1 REVERT JUMPDEST PUSH0 GAS SWAP1 POP PUSH2 0x1364 PUSH1 0x10 DUP4 PUSH2 0x1E9D JUMP JUMPDEST PUSH2 0x13B0 JUMPI PUSH1 0x40 MLOAD PUSH3 0x461BCD PUSH1 0xE5 SHL DUP2 MSTORE PUSH1 0x20 PUSH1 0x4 DUP3 ADD MSTORE PUSH1 0x14 PUSH1 0x24 DUP3 ADD MSTORE PUSH32 0x4F7264657220646F6573206E6F74206578697374000000000000000000000000 PUSH1 0x44 DUP3 ADD MSTORE PUSH1 0x64 ADD PUSH2 0x673 JUMP JUMPDEST PUSH2 0x13B9 DUP3 PUSH2 0x209E JUMP JUMPDEST PUSH0 DUP3 DUP2 MSTORE PUSH1 0xF PUSH1 0x20 MSTORE PUSH1 0x40 DUP2 KECCAK256 SWAP1 GAS SWAP1 POP PUSH0 PUSH2 0x13D5 DUP3 DUP6 PUSH2 0x398A JUMP JUMPDEST SWAP1 POP PUSH0 PUSH2 0x13E8 GASPRICE PUSH2 0x8CC DUP5 PUSH2 0x88B8 PUSH2 0x246D JUMP JUMPDEST PUSH1 0xA SLOAD SWAP1 SWAP2 POP PUSH2 0x13F8 SWAP1 DUP3 PUSH2 0x246D JUMP JUMPDEST PUSH1 0xA SWAP1 DUP2 SSTORE DUP5 ADD SLOAD DUP2 GT ISZERO PUSH2 0x144F JUMPI PUSH1 0x40 MLOAD PUSH3 0x461BCD PUSH1 0xE5 SHL DUP2 MSTORE PUSH1 0x20 PUSH1 0x4 DUP3 ADD MSTORE PUSH1 0x18 PUSH1 0x24 DUP3 ADD MSTORE PUSH32 0x696E73756666696369656E7420747820666565206C6566740000000000000000 PUSH1 0x44 DUP3 ADD MSTORE PUSH1 0x64 ADD PUSH2 0x673 JUMP JUMPDEST PUSH1 0xA DUP5 ADD SLOAD PUSH2 0x145E SWAP1 DUP3 PUSH2 0x24CB JUMP JUMPDEST PUSH1 0xA DUP6 ADD SSTORE PUSH1 0x7 DUP5 ADD SLOAD PUSH1 0xFF AND PUSH0 SUB PUSH2 0x1511 JUMPI PUSH2 0x14B8 DUP5 PUSH1 0x6 ADD SLOAD DUP6 PUSH1 0x2 ADD PUSH0 DUP2 SLOAD DUP2 LT PUSH2 0x148E JUMPI PUSH2 0x148E PUSH2 0x3930 JUMP JUMPDEST PUSH0 SWAP2 DUP3 MSTORE PUSH1 0x20 SWAP1 SWAP2 KECCAK256 ADD SLOAD PUSH1 0x3 DUP8 ADD SLOAD PUSH1 0xA DUP9 ADD SLOAD PUSH1 0x1 PUSH1 0x1 PUSH1 0xA0 SHL SUB SWAP3 DUP4 AND SWAP3 SWAP1 SWAP2 AND SWAP1 PUSH2 0x1FAC JUMP JUMPDEST PUSH1 0x3 DUP5 ADD SLOAD PUSH2 0x14D1 SWAP1 DUP8 SWAP1 PUSH1 0x1 PUSH1 0x1 PUSH1 0xA0 SHL SUB AND PUSH2 0x1EBF JUMP JUMPDEST PUSH1 0x1 DUP5 ADD SLOAD PUSH1 0x40 DUP1 MLOAD SWAP2 DUP3 MSTORE TIMESTAMP PUSH1 0x20 DUP4 ADD MSTORE DUP8 SWAP2 PUSH32 0xB38583F2ADB435CAC858DB9D3E8D3CA952CCB32307E2F3D0053B415D2D293481 SWAP2 ADD PUSH1 0x40 MLOAD DUP1 SWAP2 SUB SWAP1 LOG2 JUMPDEST POP POP PUSH1 0x1 PUSH0 SSTORE POP POP POP POP JUMP JUMPDEST PUSH1 0x1 SLOAD PUSH1 0x1 PUSH1 0x1 PUSH1 0xA0 SHL SUB PUSH2 0x100 SWAP1 SWAP2 DIV AND CALLER EQ PUSH2 0x157D JUMPI PUSH1 0x40 MLOAD PUSH3 0x461BCD PUSH1 0xE5 SHL DUP2 MSTORE PUSH1 0x20 PUSH1 0x4 DUP3 ADD DUP2 SWAP1 MSTORE PUSH1 0x24 DUP3 ADD MSTORE PUSH32 0x4F776E61626C653A2063616C6C6572206973206E6F7420746865206F776E6572 PUSH1 0x44 DUP3 ADD MSTORE PUSH1 0x64 ADD PUSH2 0x673 JUMP JUMPDEST PUSH1 0x1 PUSH1 0x1 PUSH1 0xA0 SHL SUB DUP2 AND PUSH2 0x15F9 JUMPI PUSH1 0x40 MLOAD PUSH3 0x461BCD PUSH1 0xE5 SHL DUP2 MSTORE PUSH1 0x20 PUSH1 0x4 DUP3 ADD MSTORE PUSH1 0x26 PUSH1 0x24 DUP3 ADD MSTORE PUSH32 0x4F776E61626C653A206E6577206F776E657220697320746865207A65726F2061 PUSH1 0x44 DUP3 ADD MSTORE PUSH32 0x6464726573730000000000000000000000000000000000000000000000000000 PUSH1 0x64 DUP3 ADD MSTORE PUSH1 0x84 ADD PUSH2 0x673 JUMP JUMPDEST PUSH1 0x1 SLOAD PUSH1 0x40 MLOAD PUSH1 0x1 PUSH1 0x1 PUSH1 0xA0 SHL SUB DUP1 DUP5 AND SWAP3 PUSH2 0x100 SWAP1 DIV AND SWAP1 PUSH32 0x8BE0079C531659141344CD1FD0A4F28419497F9722A3DAAFE3B4186F6B6457E0 SWAP1 PUSH0 SWAP1 LOG3 PUSH1 0x1 DUP1 SLOAD PUSH1 0x1 PUSH1 0x1 PUSH1 0xA0 SHL SUB SWAP1 SWAP3 AND PUSH2 0x100 MUL PUSH32 0xFFFFFFFFFFFFFFFFFFFFFF0000000000000000000000000000000000000000FF SWAP1 SWAP3 AND SWAP2 SWAP1 SWAP2 OR SWAP1 SSTORE JUMP JUMPDEST PUSH1 0x40 MLOAD PUSH1 0x1 PUSH1 0x1 PUSH1 0xA0 SHL SUB DUP4 AND PUSH1 0x24 DUP3 ADD MSTORE PUSH1 0x44 DUP2 ADD DUP3 SWAP1 MSTORE PUSH2 0x171E SWAP1 DUP5 SWAP1 PUSH32 0xA9059CBB00000000000000000000000000000000000000000000000000000000 SWAP1 PUSH1 0x64 ADD JUMPDEST PUSH1 0x40 DUP1 MLOAD PUSH1 0x1F NOT DUP2 DUP5 SUB ADD DUP2 MSTORE SWAP2 SWAP1 MSTORE PUSH1 0x20 DUP2 ADD DUP1 MLOAD PUSH28 0xFFFFFFFFFFFFFFFFFFFFFFFFFFFFFFFFFFFFFFFFFFFFFFFFFFFFFFFF AND PUSH32 0xFFFFFFFF00000000000000000000000000000000000000000000000000000000 SWAP1 SWAP4 AND SWAP3 SWAP1 SWAP3 OR SWAP1 SWAP2 MSTORE POP POP JUMP JUMPDEST POP POP POP JUMP JUMPDEST PUSH0 PUSH2 0xCA2 DUP3 SLOAD SWAP1 JUMP JUMPDEST PUSH0 DUP3 PUSH0 SUB PUSH2 0x173B JUMPI POP PUSH0 PUSH2 0xCA2 JUMP JUMPDEST PUSH0 PUSH2 0x1746 DUP4 DUP6 PUSH2 0x399D JUMP JUMPDEST SWAP1 POP DUP3 PUSH2 0x1753 DUP6 DUP4 PUSH2 0x39B4 JUMP JUMPDEST EQ PUSH2 0x17C6 JUMPI PUSH1 0x40 MLOAD PUSH3 0x461BCD PUSH1 0xE5 SHL DUP2 MSTORE PUSH1 0x20 PUSH1 0x4 DUP3 ADD MSTORE PUSH1 0x21 PUSH1 0x24 DUP3 ADD MSTORE PUSH32 0x536166654D6174683A206D756C7469706C69636174696F6E206F766572666C6F PUSH1 0x44 DUP3 ADD MSTORE PUSH32 0x7700000000000000000000000000000000000000000000000000000000000000 PUSH1 0x64 DUP3 ADD MSTORE PUSH1 0x84 ADD PUSH2 0x673 JUMP JUMPDEST SWAP4 SWAP3 POP POP POP JUMP JUMPDEST DUP2 DUP2 LT ISZERO PUSH2 0x181D JUMPI PUSH1 0x40 MLOAD PUSH3 0x461BCD PUSH1 0xE5 SHL DUP2 MSTORE PUSH1 0x20 PUSH1 0x4 DUP3 ADD MSTORE PUSH1 0x12 PUSH1 0x24 DUP3 ADD MSTORE PUSH32 0x6C657373206E617469766520666F722074780000000000000000000000000000 PUSH1 0x44 DUP3 ADD MSTORE PUSH1 0x64 ADD PUSH2 0x673 JUMP JUMPDEST DUP8 PUSH0 SUB PUSH2 0x186C JUMPI PUSH1 0x40 MLOAD PUSH3 0x461BCD PUSH1 0xE5 SHL DUP2 MSTORE PUSH1 0x20 PUSH1 0x4 DUP3 ADD MSTORE PUSH1 0xE PUSH1 0x24 DUP3 ADD MSTORE PUSH32 0x5A65726F20616D6F756E7420696E000000000000000000000000000000000000 PUSH1 0x44 DUP3 ADD MSTORE PUSH1 0x64 ADD PUSH2 0x673 JUMP JUMPDEST PUSH1 0x1 PUSH1 0x1 PUSH1 0xA0 SHL SUB DUP8 AND ISZERO DUP1 ISZERO SWAP1 PUSH2 0x188C JUMPI POP PUSH1 0x1 PUSH1 0x1 PUSH1 0xA0 SHL SUB DUP7 AND ISZERO ISZERO JUMPDEST DUP1 ISZERO PUSH2 0x18AA JUMPI POP DUP6 PUSH1 0x1 PUSH1 0x1 PUSH1 0xA0 SHL SUB AND DUP8 PUSH1 0x1 PUSH1 0x1 PUSH1 0xA0 SHL SUB AND EQ ISZERO JUMPDEST PUSH2 0x18F6 JUMPI PUSH1 0x40 MLOAD PUSH3 0x461BCD PUSH1 0xE5 SHL DUP2 MSTORE PUSH1 0x20 PUSH1 0x4 DUP3 ADD MSTORE PUSH1 0xE PUSH1 0x24 DUP3 ADD MSTORE PUSH32 0x496E76616C696420746F6B656E73000000000000000000000000000000000000 PUSH1 0x44 DUP3 ADD MSTORE PUSH1 0x64 ADD PUSH2 0x673 JUMP JUMPDEST PUSH1 0x1 DUP6 LT ISZERO DUP1 ISZERO PUSH2 0x190B JUMPI POP PUSH4 0x1E18558 DUP6 GT ISZERO JUMPDEST PUSH2 0x1957 JUMPI PUSH1 0x40 MLOAD PUSH3 0x461BCD PUSH1 0xE5 SHL DUP2 MSTORE PUSH1 0x20 PUSH1 0x4 DUP3 ADD MSTORE PUSH1 0x10 PUSH1 0x24 DUP3 ADD MSTORE PUSH32 0x496E76616C696420696E74657276616C00000000000000000000000000000000 PUSH1 0x44 DUP3 ADD MSTORE PUSH1 0x64 ADD PUSH2 0x673 JUMP JUMPDEST PUSH1 0xFF DUP5 PUSH1 0xFF AND GT ISZERO PUSH2 0x19AB JUMPI PUSH1 0x40 MLOAD PUSH3 0x461BCD PUSH1 0xE5 SHL DUP2 MSTORE PUSH1 0x20 PUSH1 0x4 DUP3 ADD MSTORE PUSH1 0x15 PUSH1 0x24 DUP3 ADD MSTORE PUSH32 0x496E76616C6964206E756D206F66206F72646572730000000000000000000000 PUSH1 0x44 DUP3 ADD MSTORE PUSH1 0x64 ADD PUSH2 0x673 JUMP JUMPDEST DUP3 MLOAD ISZERO ISZERO DUP1 PUSH2 0x19BD JUMPI POP PUSH1 0x20 DUP4 ADD MLOAD ISZERO ISZERO JUMPDEST ISZERO PUSH2 0x1A22 JUMPI DUP3 MLOAD ISZERO DUP1 ISZERO SWAP1 PUSH2 0x19D6 JUMPI POP PUSH1 0x20 DUP4 ADD MLOAD DUP4 MLOAD LT JUMPDEST PUSH2 0x1A22 JUMPI PUSH1 0x40 MLOAD PUSH3 0x461BCD PUSH1 0xE5 SHL DUP2 MSTORE PUSH1 0x20 PUSH1 0x4 DUP3 ADD MSTORE PUSH1 0x13 PUSH1 0x24 DUP3 ADD MSTORE PUSH32 0x496E76616C69642070726963652072616E676500000000000000000000000000 PUSH1 0x44 DUP3 ADD MSTORE PUSH1 0x64 ADD PUSH2 0x673 JUMP JUMPDEST POP POP POP POP POP POP POP POP JUMP JUMPDEST PUSH1 0x40 DUP1 MLOAD PUSH1 0x2 DUP1 DUP3 MSTORE PUSH1 0x60 DUP3 ADD DUP4 MSTORE PUSH0 SWAP3 DUP4 SWAP3 SWAP2 SWAP1 PUSH1 0x20 DUP4 ADD SWAP1 DUP1 CALLDATASIZE DUP4 CALLDATACOPY ADD SWAP1 POP POP SWAP1 POP DUP9 DUP2 PUSH0 DUP2 MLOAD DUP2 LT PUSH2 0x1A63 JUMPI PUSH2 0x1A63 PUSH2 0x3930 JUMP JUMPDEST PUSH1 0x20 MUL PUSH1 0x20 ADD ADD SWAP1 PUSH1 0x1 PUSH1 0x1 PUSH1 0xA0 SHL SUB AND SWAP1 DUP2 PUSH1 0x1 PUSH1 0x1 PUSH1 0xA0 SHL SUB AND DUP2 MSTORE POP POP DUP8 DUP2 PUSH1 0x1 DUP2 MLOAD DUP2 LT PUSH2 0x1A97 JUMPI PUSH2 0x1A97 PUSH2 0x3930 JUMP JUMPDEST PUSH1 0x20 MUL PUSH1 0x20 ADD ADD SWAP1 PUSH1 0x1 PUSH1 0x1 PUSH1 0xA0 SHL SUB AND SWAP1 DUP2 PUSH1 0x1 PUSH1 0x1 PUSH1 0xA0 SHL SUB AND DUP2 MSTORE POP POP PUSH0 PUSH2 0x1AC2 DUP12 DUP4 PUSH2 0x2526 JUMP JUMPDEST POP SWAP3 POP POP POP PUSH0 DUP2 GT PUSH2 0x1B16 JUMPI PUSH1 0x40 MLOAD PUSH3 0x461BCD PUSH1 0xE5 SHL DUP2 MSTORE PUSH1 0x20 PUSH1 0x4 DUP3 ADD MSTORE PUSH1 0x1E PUSH1 0x24 DUP3 ADD MSTORE PUSH32 0x496E73756666696369656E74204C697175696469747920696E20706F6F6C0000 PUSH1 0x44 DUP3 ADD MSTORE PUSH1 0x64 ADD PUSH2 0x673 JUMP JUMPDEST POP PUSH1 0x8 SLOAD PUSH1 0x40 MLOAD PUSH32 0xFFFFFFFFFFFFFFFFFFFFFFFFFFFFFFFFFFFFFFFF000000000000000000000000 PUSH1 0x60 DUP8 SWAP1 SHL AND PUSH1 0x20 DUP3 ADD MSTORE TIMESTAMP PUSH1 0x34 DUP3 ADD MSTORE PUSH1 0x54 DUP2 ADD SWAP2 SWAP1 SWAP2 MSTORE PUSH1 0x74 ADD PUSH1 0x40 DUP1 MLOAD DUP1 DUP4 SUB PUSH1 0x1F NOT ADD DUP2 MSTORE DUP3 DUP3 MSTORE DUP1 MLOAD PUSH1 0x20 SWAP2 DUP3 ADD KECCAK256 PUSH1 0x8 DUP2 SWAP1 SSTORE SWAP1 DUP4 ADD DUP14 SWAP1 MSTORE PUSH32 0xFFFFFFFFFFFFFFFFFFFFFFFFFFFFFFFFFFFFFFFF000000000000000000000000 PUSH1 0x60 DUP14 DUP2 SHL DUP3 AND SWAP4 DUP6 ADD SWAP4 SWAP1 SWAP4 MSTORE DUP12 DUP4 SHL DUP2 AND PUSH1 0x54 DUP6 ADD MSTORE SWAP2 DUP8 SWAP1 SHL SWAP1 SWAP2 AND PUSH1 0x68 DUP4 ADD MSTORE PUSH1 0x7C DUP3 ADD DUP10 SWAP1 MSTORE PUSH32 0xFF00000000000000000000000000000000000000000000000000000000000000 PUSH1 0xF8 DUP10 SWAP1 SHL AND PUSH1 0x9C DUP4 ADD MSTORE PUSH1 0x9D DUP3 ADD MSTORE NUMBER PUSH1 0xBD DUP3 ADD MSTORE PUSH1 0xDD ADD PUSH1 0x40 DUP1 MLOAD PUSH1 0x1F NOT DUP2 DUP5 SUB ADD DUP2 MSTORE SWAP2 SWAP1 MSTORE DUP1 MLOAD PUSH1 0x20 SWAP1 SWAP2 ADD KECCAK256 SWAP2 POP PUSH2 0x1C28 PUSH1 0x10 DUP4 PUSH2 0x1E9D JUMP JUMPDEST ISZERO PUSH2 0x1C75 JUMPI PUSH1 0x40 MLOAD PUSH3 0x461BCD PUSH1 0xE5 SHL DUP2 MSTORE PUSH1 0x20 PUSH1 0x4 DUP3 ADD MSTORE PUSH1 0xF PUSH1 0x24 DUP3 ADD MSTORE PUSH32 0x4F72646572206964206578697374730000000000000000000000000000000000 PUSH1 0x44 DUP3 ADD MSTORE PUSH1 0x64 ADD PUSH2 0x673 JUMP JUMPDEST PUSH2 0x1C8A PUSH1 0x1 PUSH1 0x1 PUSH1 0xA0 SHL SUB DUP11 AND DUP6 ADDRESS DUP14 PUSH2 0x2DE7 JUMP JUMPDEST PUSH0 PUSH2 0x1C98 DUP12 PUSH1 0xFF DUP10 AND PUSH2 0x2E38 JUMP JUMPDEST SWAP1 POP PUSH0 PUSH1 0x40 MLOAD DUP1 PUSH2 0x1A0 ADD PUSH1 0x40 MSTORE DUP1 DUP6 DUP2 MSTORE PUSH1 0x20 ADD DUP14 DUP2 MSTORE PUSH1 0x20 ADD DUP5 DUP2 MSTORE PUSH1 0x20 ADD DUP8 PUSH1 0x1 PUSH1 0x1 PUSH1 0xA0 SHL SUB AND DUP2 MSTORE PUSH1 0x20 ADD DUP11 DUP2 MSTORE PUSH1 0x20 ADD TIMESTAMP DUP2 MSTORE PUSH1 0x20 ADD DUP14 DUP2 MSTORE PUSH1 0x20 ADD DUP10 PUSH1 0xFF AND DUP2 MSTORE PUSH1 0x20 ADD DUP10 PUSH1 0xFF AND DUP2 MSTORE PUSH1 0x20 ADD DUP9 PUSH0 PUSH1 0x2 DUP2 LT PUSH2 0x1CFE JUMPI PUSH2 0x1CFE PUSH2 0x3930 JUMP JUMPDEST PUSH1 0x20 MUL ADD MLOAD DUP2 MSTORE PUSH1 0x20 ADD DUP9 PUSH1 0x1 PUSH1 0x2 DUP2 LT PUSH2 0x1D1B JUMPI PUSH2 0x1D1B PUSH2 0x3930 JUMP JUMPDEST PUSH1 0x20 MUL ADD MLOAD DUP2 MSTORE PUSH1 0x20 ADD DUP7 DUP2 MSTORE PUSH1 0x20 ADD DUP4 DUP2 MSTORE POP SWAP1 POP PUSH2 0x1D3C DUP5 DUP8 DUP4 PUSH2 0x2E92 JUMP JUMPDEST PUSH1 0x40 DUP1 MLOAD DUP14 DUP2 MSTORE PUSH1 0x1 PUSH1 0x1 PUSH1 0xA0 SHL SUB DUP14 DUP2 AND PUSH1 0x20 DUP4 ADD MSTORE DUP13 DUP2 AND DUP3 DUP5 ADD MSTORE PUSH1 0xFF DUP12 AND PUSH1 0x60 DUP4 ADD MSTORE PUSH1 0x80 DUP3 ADD DUP13 SWAP1 MSTORE SWAP2 MLOAD SWAP2 DUP9 AND SWAP2 DUP7 SWAP2 PUSH32 0x329EA8877957D9A6BC95AE3900BD5494970AA1252E257C6D72A1CE23E1B584BB SWAP2 SWAP1 DUP2 SWAP1 SUB PUSH1 0xA0 ADD SWAP1 LOG3 PUSH32 0xA1E5D4A0D7FBBD7BC11E85131B092EAEB71C8BC618D53C05E37B9AFBB4336877 DUP2 PUSH1 0x40 MLOAD PUSH2 0x1DCC SWAP2 SWAP1 PUSH2 0x3860 JUMP JUMPDEST PUSH1 0x40 MLOAD DUP1 SWAP2 SUB SWAP1 LOG1 POP POP POP SWAP9 SWAP8 POP POP POP POP POP POP POP POP JUMP JUMPDEST PUSH1 0x1 SLOAD PUSH1 0xFF AND PUSH2 0x1E35 JUMPI PUSH1 0x40 MLOAD PUSH3 0x461BCD PUSH1 0xE5 SHL DUP2 MSTORE PUSH1 0x20 PUSH1 0x4 DUP3 ADD MSTORE PUSH1 0x14 PUSH1 0x24 DUP3 ADD MSTORE PUSH32 0x5061757361626C653A206E6F7420706175736564000000000000000000000000 PUSH1 0x44 DUP3 ADD MSTORE PUSH1 0x64 ADD PUSH2 0x673 JUMP JUMPDEST PUSH1 0x1 DUP1 SLOAD PUSH32 0xFFFFFFFFFFFFFFFFFFFFFFFFFFFFFFFFFFFFFFFFFFFFFFFFFFFFFFFFFFFFFF00 AND SWAP1 SSTORE PUSH32 0x5DB9EE0A495BF2E6FF9C91A7834C1BA4FDD244A5E8AA4E537BD38AEAE4B073AA CALLER JUMPDEST PUSH1 0x40 MLOAD PUSH1 0x1 PUSH1 0x1 PUSH1 0xA0 SHL SUB SWAP1 SWAP2 AND DUP2 MSTORE PUSH1 0x20 ADD PUSH1 0x40 MLOAD DUP1 SWAP2 SUB SWAP1 LOG1 JUMP JUMPDEST PUSH0 DUP2 DUP2 MSTORE PUSH1 0x1 DUP4 ADD PUSH1 0x20 MSTORE PUSH1 0x40 DUP2 KECCAK256 SLOAD ISZERO ISZERO PUSH2 0x17C6 JUMP JUMPDEST PUSH0 PUSH2 0x17C6 DUP4 DUP4 PUSH2 0x3007 JUMP JUMPDEST PUSH1 0x1 PUSH1 0x1 PUSH1 0xA0 SHL SUB DUP2 AND PUSH0 SWAP1 DUP2 MSTORE PUSH1 0xD PUSH1 0x20 SWAP1 DUP2 MSTORE PUSH1 0x40 DUP1 DUP4 KECCAK256 PUSH1 0xE DUP4 MSTORE DUP2 DUP5 KECCAK256 DUP7 DUP6 MSTORE DUP4 MSTORE DUP2 DUP5 KECCAK256 SLOAD DUP5 MSTORE SWAP1 SWAP2 MSTORE DUP2 KECCAK256 SSTORE PUSH2 0x1EFC PUSH1 0x10 DUP4 PUSH2 0x30A4 JUMP JUMPDEST POP PUSH0 DUP3 DUP2 MSTORE PUSH1 0xF PUSH1 0x20 MSTORE PUSH1 0x40 DUP2 KECCAK256 DUP2 DUP2 SSTORE PUSH1 0x1 DUP2 ADD DUP3 SWAP1 SSTORE SWAP1 PUSH2 0x1F22 PUSH1 0x2 DUP4 ADD DUP3 PUSH2 0x35A9 JUMP JUMPDEST POP PUSH1 0x3 DUP2 ADD DUP1 SLOAD PUSH32 0xFFFFFFFFFFFFFFFFFFFFFFFF0000000000000000000000000000000000000000 AND SWAP1 SSTORE PUSH0 PUSH1 0x4 DUP3 ADD DUP2 SWAP1 SSTORE PUSH1 0x5 DUP3 ADD DUP2 SWAP1 SSTORE PUSH1 0x6 DUP3 ADD DUP2 SWAP1 SSTORE PUSH1 0x7 DUP3 ADD DUP1 SLOAD PUSH32 0xFFFFFFFFFFFFFFFFFFFFFFFFFFFFFFFFFFFFFFFFFFFFFFFFFFFFFFFFFFFF0000 AND SWAP1 SSTORE PUSH1 0x8 DUP3 ADD DUP2 SWAP1 SSTORE PUSH1 0x9 DUP3 ADD DUP2 SWAP1 SSTORE PUSH1 0xA DUP3 ADD DUP2 SWAP1 SSTORE PUSH1 0xB SWAP1 SWAP2 ADD SSTORE POP POP JUMP JUMPDEST PUSH1 0x40 MLOAD PUSH1 0x1 PUSH1 0x1 PUSH1 0xA0 SHL SUB DUP4 AND SWAP1 DUP3 ISZERO PUSH2 0x8FC MUL SWAP1 DUP4 SWAP1 PUSH0 DUP2 DUP2 DUP2 DUP6 DUP9 DUP9 CALL SWAP4 POP POP POP POP ISZERO DUP1 ISZERO PUSH2 0x1FDF JUMPI RETURNDATASIZE PUSH0 DUP1 RETURNDATACOPY RETURNDATASIZE PUSH0 REVERT JUMPDEST POP PUSH2 0x1FF4 PUSH1 0x1 PUSH1 0x1 PUSH1 0xA0 SHL SUB DUP5 AND DUP4 DUP7 PUSH2 0x1676 JUMP JUMPDEST POP POP POP POP JUMP JUMPDEST PUSH1 0x1 SLOAD PUSH1 0xFF AND ISZERO PUSH2 0x204D JUMPI PUSH1 0x40 MLOAD PUSH3 0x461BCD PUSH1 0xE5 SHL DUP2 MSTORE PUSH1 0x20 PUSH1 0x4 DUP3 ADD MSTORE PUSH1 0x10 PUSH1 0x24 DUP3 ADD MSTORE PUSH32 0x5061757361626C653A2070617573656400000000000000000000000000000000 PUSH1 0x44 DUP3 ADD MSTORE PUSH1 0x64 ADD PUSH2 0x673 JUMP JUMPDEST PUSH1 0x1 DUP1 SLOAD PUSH32 0xFFFFFFFFFFFFFFFFFFFFFFFFFFFFFFFFFFFFFFFFFFFFFFFFFFFFFFFFFFFFFF00 AND DUP2 OR SWAP1 SSTORE PUSH32 0x62E78CEA01BEE320CD4E420270B5EA74000D11B0C9F74754EBDBFC544B05A258 CALLER PUSH2 0x1E80 JUMP JUMPDEST PUSH0 DUP2 DUP2 MSTORE PUSH1 0xF PUSH1 0x20 MSTORE PUSH1 0x40 SWAP1 KECCAK256 PUSH1 0xB DUP2 ADD SLOAD PUSH1 0x6 DUP3 ADD SLOAD DUP2 GT ISZERO PUSH2 0x20C3 JUMPI POP PUSH1 0x6 DUP2 ADD SLOAD JUMPDEST PUSH1 0x7 DUP3 ADD DUP1 SLOAD PUSH1 0x1 SWAP2 SWAP1 PUSH0 SWAP1 PUSH2 0x20DD SWAP1 DUP5 SWAP1 PUSH1 0xFF AND PUSH2 0x39EC JUMP JUMPDEST SWAP3 POP PUSH2 0x100 EXP DUP2 SLOAD DUP2 PUSH1 0xFF MUL NOT AND SWAP1 DUP4 PUSH1 0xFF AND MUL OR SWAP1 SSTORE POP TIMESTAMP DUP3 PUSH1 0x5 ADD DUP2 SWAP1 SSTORE POP DUP1 DUP3 PUSH1 0x6 ADD PUSH0 DUP3 DUP3 SLOAD PUSH2 0x2111 SWAP2 SWAP1 PUSH2 0x398A JUMP JUMPDEST SWAP3 POP POP DUP2 SWAP1 SSTORE POP PUSH0 PUSH2 0x213A PUSH2 0x2710 PUSH2 0x2134 PUSH1 0x7 SLOAD DUP6 PUSH2 0x172C SWAP1 SWAP2 SWAP1 PUSH4 0xFFFFFFFF AND JUMP JUMPDEST SWAP1 PUSH2 0x2E38 JUMP JUMPDEST SWAP1 POP DUP1 PUSH1 0xB PUSH0 DUP6 PUSH1 0x2 ADD PUSH0 DUP2 SLOAD DUP2 LT PUSH2 0x2155 JUMPI PUSH2 0x2155 PUSH2 0x3930 JUMP JUMPDEST PUSH0 SWAP2 DUP3 MSTORE PUSH1 0x20 DUP1 DUP4 KECCAK256 SWAP1 SWAP2 ADD SLOAD PUSH1 0x1 PUSH1 0x1 PUSH1 0xA0 SHL SUB AND DUP4 MSTORE DUP3 ADD SWAP3 SWAP1 SWAP3 MSTORE PUSH1 0x40 ADD DUP2 KECCAK256 DUP1 SLOAD SWAP1 SWAP2 SWAP1 PUSH2 0x2188 SWAP1 DUP5 SWAP1 PUSH2 0x3A05 JUMP JUMPDEST SWAP1 SWAP2 SSTORE POP PUSH2 0x2198 SWAP1 POP DUP2 DUP4 PUSH2 0x398A JUMP JUMPDEST SWAP2 POP PUSH0 DUP1 PUSH0 DUP1 PUSH2 0x2202 DUP7 DUP9 PUSH1 0x2 ADD DUP1 SLOAD DUP1 PUSH1 0x20 MUL PUSH1 0x20 ADD PUSH1 0x40 MLOAD SWAP1 DUP2 ADD PUSH1 0x40 MSTORE DUP1 SWAP3 SWAP2 SWAP1 DUP2 DUP2 MSTORE PUSH1 0x20 ADD DUP3 DUP1 SLOAD DUP1 ISZERO PUSH2 0x21F8 JUMPI PUSH1 0x20 MUL DUP3 ADD SWAP2 SWAP1 PUSH0 MSTORE PUSH1 0x20 PUSH0 KECCAK256 SWAP1 JUMPDEST DUP2 SLOAD PUSH1 0x1 PUSH1 0x1 PUSH1 0xA0 SHL SUB AND DUP2 MSTORE PUSH1 0x1 SWAP1 SWAP2 ADD SWAP1 PUSH1 0x20 ADD DUP1 DUP4 GT PUSH2 0x21DA JUMPI JUMPDEST POP POP POP POP POP PUSH2 0x2526 JUMP JUMPDEST SWAP4 POP SWAP4 POP SWAP4 POP SWAP4 POP PUSH0 DUP3 GT PUSH2 0x2259 JUMPI PUSH1 0x40 MLOAD PUSH3 0x461BCD PUSH1 0xE5 SHL DUP2 MSTORE PUSH1 0x20 PUSH1 0x4 DUP3 ADD MSTORE PUSH1 0x1E PUSH1 0x24 DUP3 ADD MSTORE PUSH32 0x496E73756666696369656E74204C697175696469747920696E20706F6F6C0000 PUSH1 0x44 DUP3 ADD MSTORE PUSH1 0x64 ADD PUSH2 0x673 JUMP JUMPDEST PUSH1 0x8 DUP8 ADD SLOAD ISZERO PUSH2 0x22ED JUMPI DUP7 PUSH1 0x8 ADD SLOAD DUP2 LT ISZERO DUP1 ISZERO PUSH2 0x227B JUMPI POP DUP7 PUSH1 0x9 ADD SLOAD DUP2 GT ISZERO JUMPDEST PUSH2 0x22ED JUMPI PUSH1 0x40 MLOAD PUSH3 0x461BCD PUSH1 0xE5 SHL DUP2 MSTORE PUSH1 0x20 PUSH1 0x4 DUP3 ADD MSTORE PUSH1 0x23 PUSH1 0x24 DUP3 ADD MSTORE PUSH32 0x507269636520446F65736E2774206C6965206265747765656E20746865207261 PUSH1 0x44 DUP3 ADD MSTORE PUSH32 0x6E67650000000000000000000000000000000000000000000000000000000000 PUSH1 0x64 DUP3 ADD MSTORE PUSH1 0x84 ADD PUSH2 0x673 JUMP JUMPDEST PUSH0 PUSH2 0x2363 DUP8 DUP10 PUSH1 0x2 ADD DUP1 SLOAD DUP1 PUSH1 0x20 MUL PUSH1 0x20 ADD PUSH1 0x40 MLOAD SWAP1 DUP2 ADD PUSH1 0x40 MSTORE DUP1 SWAP3 SWAP2 SWAP1 DUP2 DUP2 MSTORE PUSH1 0x20 ADD DUP3 DUP1 SLOAD DUP1 ISZERO PUSH2 0x2348 JUMPI PUSH1 0x20 MUL DUP3 ADD SWAP2 SWAP1 PUSH0 MSTORE PUSH1 0x20 PUSH0 KECCAK256 SWAP1 JUMPDEST DUP2 SLOAD PUSH1 0x1 PUSH1 0x1 PUSH1 0xA0 SHL SUB AND DUP2 MSTORE PUSH1 0x1 SWAP1 SWAP2 ADD SWAP1 PUSH1 0x20 ADD DUP1 DUP4 GT PUSH2 0x232A JUMPI JUMPDEST POP POP POP POP PUSH1 0x3 DUP13 ADD SLOAD PUSH1 0x1 PUSH1 0x1 PUSH1 0xA0 SHL SUB AND SWAP1 POP DUP9 DUP9 PUSH2 0x30AF JUMP JUMPDEST SWAP1 POP DUP1 PUSH2 0x23D8 JUMPI PUSH1 0x40 MLOAD PUSH3 0x461BCD PUSH1 0xE5 SHL DUP2 MSTORE PUSH1 0x20 PUSH1 0x4 DUP3 ADD MSTORE PUSH1 0x21 PUSH1 0x24 DUP3 ADD MSTORE PUSH32 0x496E737566666963696574204C697175696469747920696E2074686520706F6F PUSH1 0x44 DUP3 ADD MSTORE PUSH32 0x6C00000000000000000000000000000000000000000000000000000000000000 PUSH1 0x64 DUP3 ADD MSTORE PUSH1 0x84 ADD PUSH2 0x673 JUMP JUMPDEST PUSH1 0x40 DUP1 MLOAD PUSH1 0x20 DUP2 ADD DUP12 SWAP1 MSTORE SWAP1 DUP2 ADD DUP9 SWAP1 MSTORE PUSH1 0x60 DUP2 ADD DUP4 SWAP1 MSTORE TIMESTAMP PUSH1 0x80 DUP3 ADD MSTORE NUMBER PUSH1 0xA0 DUP3 ADD MSTORE PUSH0 SWAP1 PUSH1 0xC0 ADD PUSH1 0x40 DUP1 MLOAD PUSH1 0x1F NOT DUP2 DUP5 SUB ADD DUP2 MSTORE DUP3 DUP3 MSTORE DUP1 MLOAD PUSH1 0x20 SWAP2 DUP3 ADD KECCAK256 DUP12 DUP5 MSTORE SWAP1 DUP4 ADD DUP8 SWAP1 MSTORE SWAP1 DUP3 ADD DUP6 SWAP1 MSTORE TIMESTAMP PUSH1 0x60 DUP4 ADD MSTORE SWAP2 POP DUP2 SWAP1 DUP12 SWAP1 PUSH32 0xAD2E99392DC283414380C576281B0A970817175893F602F4615C16F9111D78A3 SWAP1 PUSH1 0x80 ADD PUSH1 0x40 MLOAD DUP1 SWAP2 SUB SWAP1 LOG3 POP POP POP POP POP POP POP POP POP POP JUMP JUMPDEST PUSH0 DUP1 PUSH2 0x2479 DUP4 DUP6 PUSH2 0x3A05 JUMP JUMPDEST SWAP1 POP DUP4 DUP2 LT ISZERO PUSH2 0x17C6 JUMPI PUSH1 0x40 MLOAD PUSH3 0x461BCD PUSH1 0xE5 SHL DUP2 MSTORE PUSH1 0x20 PUSH1 0x4 DUP3 ADD MSTORE PUSH1 0x1B PUSH1 0x24 DUP3 ADD MSTORE PUSH32 0x536166654D6174683A206164646974696F6E206F766572666C6F770000000000 PUSH1 0x44 DUP3 ADD MSTORE PUSH1 0x64 ADD PUSH2 0x673 JUMP JUMPDEST PUSH0 DUP3 DUP3 GT ISZERO PUSH2 0x251C JUMPI PUSH1 0x40 MLOAD PUSH3 0x461BCD PUSH1 0xE5 SHL DUP2 MSTORE PUSH1 0x20 PUSH1 0x4 DUP3 ADD MSTORE PUSH1 0x1E PUSH1 0x24 DUP3 ADD MSTORE PUSH32 0x536166654D6174683A207375627472616374696F6E206F766572666C6F770000 PUSH1 0x44 DUP3 ADD MSTORE PUSH1 0x64 ADD PUSH2 0x673 JUMP JUMPDEST PUSH2 0x17C6 DUP3 DUP5 PUSH2 0x398A JUMP JUMPDEST PUSH0 DUP1 PUSH0 DUP1 PUSH2 0x2532 PUSH2 0x35C7 JUMP JUMPDEST PUSH1 0x40 DUP1 MLOAD PUSH1 0x60 DUP2 DUP2 ADD DUP4 MSTORE PUSH2 0x1F4 DUP3 MSTORE PUSH2 0xBB8 PUSH1 0x20 DUP4 ADD MSTORE PUSH2 0x2710 DUP3 DUP5 ADD MSTORE PUSH1 0x3 SLOAD SWAP3 MLOAD PUSH32 0xD06CA61F00000000000000000000000000000000000000000000000000000000 DUP2 MSTORE SWAP1 SWAP3 PUSH1 0x1 PUSH1 0x1 PUSH1 0xA0 SHL SUB AND SWAP1 PUSH4 0xD06CA61F SWAP1 PUSH2 0x259B SWAP1 DUP13 SWAP1 DUP13 SWAP1 PUSH1 0x4 ADD PUSH2 0x3A18 JUMP JUMPDEST PUSH0 PUSH1 0x40 MLOAD DUP1 DUP4 SUB DUP2 DUP7 GAS STATICCALL SWAP3 POP POP POP DUP1 ISZERO PUSH2 0x25D7 JUMPI POP PUSH1 0x40 MLOAD RETURNDATASIZE PUSH0 DUP3 RETURNDATACOPY PUSH1 0x1F RETURNDATASIZE SWAP1 DUP2 ADD PUSH1 0x1F NOT AND DUP3 ADD PUSH1 0x40 MSTORE PUSH2 0x25D4 SWAP2 SWAP1 DUP2 ADD SWAP1 PUSH2 0x3A38 JUMP JUMPDEST PUSH1 0x1 JUMPDEST ISZERO PUSH2 0x269E JUMPI POP PUSH1 0x3 SLOAD PUSH1 0x40 MLOAD PUSH32 0xD06CA61F00000000000000000000000000000000000000000000000000000000 DUP2 MSTORE PUSH1 0x1 PUSH1 0x1 PUSH1 0xA0 SHL SUB SWAP1 SWAP2 AND SWAP1 PUSH4 0xD06CA61F SWAP1 PUSH2 0x2628 SWAP1 DUP13 SWAP1 DUP13 SWAP1 PUSH1 0x4 ADD PUSH2 0x3A18 JUMP JUMPDEST PUSH0 PUSH1 0x40 MLOAD DUP1 DUP4 SUB DUP2 DUP7 GAS STATICCALL ISZERO DUP1 ISZERO PUSH2 0x2642 JUMPI RETURNDATASIZE PUSH0 DUP1 RETURNDATACOPY RETURNDATASIZE PUSH0 REVERT JUMPDEST POP POP POP POP PUSH1 0x40 MLOAD RETURNDATASIZE PUSH0 DUP3 RETURNDATACOPY PUSH1 0x1F RETURNDATASIZE SWAP1 DUP2 ADD PUSH1 0x1F NOT AND DUP3 ADD PUSH1 0x40 MSTORE PUSH2 0x2669 SWAP2 SWAP1 DUP2 ADD SWAP1 PUSH2 0x3A38 JUMP JUMPDEST SWAP2 POP DUP2 PUSH1 0x1 DUP2 MLOAD DUP2 LT PUSH2 0x267E JUMPI PUSH2 0x267E PUSH2 0x3930 JUMP JUMPDEST PUSH1 0x20 MUL PUSH1 0x20 ADD ADD MLOAD DUP4 PUSH0 PUSH1 0x4 DUP2 LT PUSH2 0x2698 JUMPI PUSH2 0x2698 PUSH2 0x3930 JUMP JUMPDEST PUSH1 0x20 MUL ADD MSTORE JUMPDEST PUSH1 0x5 SLOAD DUP9 MLOAD PUSH1 0x1 PUSH1 0x1 PUSH1 0xA0 SHL SUB SWAP1 SWAP2 AND SWAP1 PUSH4 0xF7729D43 SWAP1 DUP11 SWAP1 PUSH0 SWAP1 PUSH2 0x26C5 JUMPI PUSH2 0x26C5 PUSH2 0x3930 JUMP JUMPDEST PUSH1 0x20 MUL PUSH1 0x20 ADD ADD MLOAD DUP11 PUSH1 0x1 DUP2 MLOAD DUP2 LT PUSH2 0x26E0 JUMPI PUSH2 0x26E0 PUSH2 0x3930 JUMP JUMPDEST PUSH1 0x20 MUL PUSH1 0x20 ADD ADD MLOAD DUP5 PUSH0 PUSH1 0x3 DUP2 LT PUSH2 0x26FA JUMPI PUSH2 0x26FA PUSH2 0x3930 JUMP JUMPDEST PUSH1 0x20 MUL ADD MLOAD PUSH1 0x40 MLOAD PUSH32 0xFFFFFFFF00000000000000000000000000000000000000000000000000000000 PUSH1 0xE0 DUP7 SWAP1 SHL AND DUP2 MSTORE PUSH1 0x1 PUSH1 0x1 PUSH1 0xA0 SHL SUB SWAP4 DUP5 AND PUSH1 0x4 DUP3 ADD MSTORE SWAP3 SWAP1 SWAP2 AND PUSH1 0x24 DUP4 ADD MSTORE PUSH2 0xFFFF AND PUSH1 0x44 DUP3 ADD MSTORE PUSH1 0x64 DUP2 ADD DUP13 SWAP1 MSTORE PUSH0 PUSH1 0x84 DUP3 ADD MSTORE PUSH1 0xA4 ADD PUSH1 0x20 PUSH1 0x40 MLOAD DUP1 DUP4 SUB DUP2 PUSH0 DUP8 GAS CALL SWAP3 POP POP POP DUP1 ISZERO PUSH2 0x2797 JUMPI POP PUSH1 0x40 DUP1 MLOAD PUSH1 0x1F RETURNDATASIZE SWAP1 DUP2 ADD PUSH1 0x1F NOT AND DUP3 ADD SWAP1 SWAP3 MSTORE PUSH2 0x2794 SWAP2 DUP2 ADD SWAP1 PUSH2 0x3AD9 JUMP JUMPDEST PUSH1 0x1 JUMPDEST ISZERO PUSH2 0x28A2 JUMPI POP PUSH1 0x5 SLOAD DUP9 MLOAD PUSH1 0x1 PUSH1 0x1 PUSH1 0xA0 SHL SUB SWAP1 SWAP2 AND SWAP1 PUSH4 0xF7729D43 SWAP1 DUP11 SWAP1 PUSH0 SWAP1 PUSH2 0x27C4 JUMPI PUSH2 0x27C4 PUSH2 0x3930 JUMP JUMPDEST PUSH1 0x20 MUL PUSH1 0x20 ADD ADD MLOAD DUP11 PUSH1 0x1 DUP2 MLOAD DUP2 LT PUSH2 0x27DF JUMPI PUSH2 0x27DF PUSH2 0x3930 JUMP JUMPDEST PUSH1 0x20 MUL PUSH1 0x20 ADD ADD MLOAD DUP5 PUSH0 PUSH1 0x3 DUP2 LT PUSH2 0x27F9 JUMPI PUSH2 0x27F9 PUSH2 0x3930 JUMP JUMPDEST PUSH1 0x20 MUL ADD MLOAD PUSH1 0x40 MLOAD PUSH32 0xFFFFFFFF00000000000000000000000000000000000000000000000000000000 PUSH1 0xE0 DUP7 SWAP1 SHL AND DUP2 MSTORE PUSH1 0x1 PUSH1 0x1 PUSH1 0xA0 SHL SUB SWAP4 DUP5 AND PUSH1 0x4 DUP3 ADD MSTORE SWAP3 SWAP1 SWAP2 AND PUSH1 0x24 DUP4 ADD MSTORE PUSH2 0xFFFF AND PUSH1 0x44 DUP3 ADD MSTORE PUSH1 0x64 DUP2 ADD DUP13 SWAP1 MSTORE PUSH0 PUSH1 0x84 DUP3 ADD MSTORE PUSH1 0xA4 ADD PUSH1 0x20 PUSH1 0x40 MLOAD DUP1 DUP4 SUB DUP2 PUSH0 DUP8 GAS CALL ISZERO DUP1 ISZERO PUSH2 0x2878 JUMPI RETURNDATASIZE PUSH0 DUP1 RETURNDATACOPY RETURNDATASIZE PUSH0 REVERT JUMPDEST POP POP POP POP PUSH1 0x40 MLOAD RETURNDATASIZE PUSH1 0x1F NOT PUSH1 0x1F DUP3 ADD AND DUP3 ADD DUP1 PUSH1 0x40 MSTORE POP DUP2 ADD SWAP1 PUSH2 0x289C SWAP2 SWAP1 PUSH2 0x3AD9 JUMP JUMPDEST PUSH1 0x20 DUP5 ADD MSTORE JUMPDEST PUSH1 0x5 SLOAD DUP9 MLOAD PUSH1 0x1 PUSH1 0x1 PUSH1 0xA0 SHL SUB SWAP1 SWAP2 AND SWAP1 PUSH4 0xF7729D43 SWAP1 DUP11 SWAP1 PUSH0 SWAP1 PUSH2 0x28C9 JUMPI PUSH2 0x28C9 PUSH2 0x3930 JUMP JUMPDEST PUSH1 0x20 MUL PUSH1 0x20 ADD ADD MLOAD DUP11 PUSH1 0x1 DUP2 MLOAD DUP2 LT PUSH2 0x28E4 JUMPI PUSH2 0x28E4 PUSH2 0x3930 JUMP JUMPDEST PUSH1 0x20 MUL PUSH1 0x20 ADD ADD MLOAD DUP5 PUSH1 0x1 PUSH1 0x3 DUP2 LT PUSH2 0x28FF JUMPI PUSH2 0x28FF PUSH2 0x3930 JUMP JUMPDEST PUSH1 0x20 MUL ADD MLOAD PUSH1 0x40 MLOAD PUSH32 0xFFFFFFFF00000000000000000000000000000000000000000000000000000000 PUSH1 0xE0 DUP7 SWAP1 SHL AND DUP2 MSTORE PUSH1 0x1 PUSH1 0x1 PUSH1 0xA0 SHL SUB SWAP4 DUP5 AND PUSH1 0x4 DUP3 ADD MSTORE SWAP3 SWAP1 SWAP2 AND PUSH1 0x24 DUP4 ADD MSTORE PUSH2 0xFFFF AND PUSH1 0x44 DUP3 ADD MSTORE PUSH1 0x64 DUP2 ADD DUP13 SWAP1 MSTORE PUSH0 PUSH1 0x84 DUP3 ADD MSTORE PUSH1 0xA4 ADD PUSH1 0x20 PUSH1 0x40 MLOAD DUP1 DUP4 SUB DUP2 PUSH0 DUP8 GAS CALL SWAP3 POP POP POP DUP1 ISZERO PUSH2 0x299C JUMPI POP PUSH1 0x40 DUP1 MLOAD PUSH1 0x1F RETURNDATASIZE SWAP1 DUP2 ADD PUSH1 0x1F NOT AND DUP3 ADD SWAP1 SWAP3 MSTORE PUSH2 0x2999 SWAP2 DUP2 ADD SWAP1 PUSH2 0x3AD9 JUMP JUMPDEST PUSH1 0x1 JUMPDEST ISZERO PUSH2 0x2AA8 JUMPI POP PUSH1 0x5 SLOAD DUP9 MLOAD PUSH1 0x1 PUSH1 0x1 PUSH1 0xA0 SHL SUB SWAP1 SWAP2 AND SWAP1 PUSH4 0xF7729D43 SWAP1 DUP11 SWAP1 PUSH0 SWAP1 PUSH2 0x29C9 JUMPI PUSH2 0x29C9 PUSH2 0x3930 JUMP JUMPDEST PUSH1 0x20 MUL PUSH1 0x20 ADD ADD MLOAD DUP11 PUSH1 0x1 DUP2 MLOAD DUP2 LT PUSH2 0x29E4 JUMPI PUSH2 0x29E4 PUSH2 0x3930 JUMP JUMPDEST PUSH1 0x20 MUL PUSH1 0x20 ADD ADD MLOAD DUP5 PUSH1 0x1 PUSH1 0x3 DUP2 LT PUSH2 0x29FF JUMPI PUSH2 0x29FF PUSH2 0x3930 JUMP JUMPDEST PUSH1 0x20 MUL ADD MLOAD PUSH1 0x40 MLOAD PUSH32 0xFFFFFFFF00000000000000000000000000000000000000000000000000000000 PUSH1 0xE0 DUP7 SWAP1 SHL AND DUP2 MSTORE PUSH1 0x1 PUSH1 0x1 PUSH1 0xA0 SHL SUB SWAP4 DUP5 AND PUSH1 0x4 DUP3 ADD MSTORE SWAP3 SWAP1 SWAP2 AND PUSH1 0x24 DUP4 ADD MSTORE PUSH2 0xFFFF AND PUSH1 0x44 DUP3 ADD MSTORE PUSH1 0x64 DUP2 ADD DUP13 SWAP1 MSTORE PUSH0 PUSH1 0x84 DUP3 ADD MSTORE PUSH1 0xA4 ADD PUSH1 0x20 PUSH1 0x40 MLOAD DUP1 DUP4 SUB DUP2 PUSH0 DUP8 GAS CALL ISZERO DUP1 ISZERO PUSH2 0x2A7E JUMPI RETURNDATASIZE PUSH0 DUP1 RETURNDATACOPY RETURNDATASIZE PUSH0 REVERT JUMPDEST POP POP POP POP PUSH1 0x40 MLOAD RETURNDATASIZE PUSH1 0x1F NOT PUSH1 0x1F DUP3 ADD AND DUP3 ADD DUP1 PUSH1 0x40 MSTORE POP DUP2 ADD SWAP1 PUSH2 0x2AA2 SWAP2 SWAP1 PUSH2 0x3AD9 JUMP JUMPDEST PUSH1 0x40 DUP5 ADD MSTORE JUMPDEST PUSH1 0x5 SLOAD DUP9 MLOAD PUSH1 0x1 PUSH1 0x1 PUSH1 0xA0 SHL SUB SWAP1 SWAP2 AND SWAP1 PUSH4 0xF7729D43 SWAP1 DUP11 SWAP1 PUSH0 SWAP1 PUSH2 0x2ACF JUMPI PUSH2 0x2ACF PUSH2 0x3930 JUMP JUMPDEST PUSH1 0x20 MUL PUSH1 0x20 ADD ADD MLOAD DUP11 PUSH1 0x1 DUP2 MLOAD DUP2 LT PUSH2 0x2AEA JUMPI PUSH2 0x2AEA PUSH2 0x3930 JUMP JUMPDEST PUSH1 0x20 MUL PUSH1 0x20 ADD ADD MLOAD DUP5 PUSH1 0x2 PUSH1 0x3 DUP2 LT PUSH2 0x2B05 JUMPI PUSH2 0x2B05 PUSH2 0x3930 JUMP JUMPDEST PUSH1 0x20 MUL ADD MLOAD PUSH1 0x40 MLOAD PUSH32 0xFFFFFFFF00000000000000000000000000000000000000000000000000000000 PUSH1 0xE0 DUP7 SWAP1 SHL AND DUP2 MSTORE PUSH1 0x1 PUSH1 0x1 PUSH1 0xA0 SHL SUB SWAP4 DUP5 AND PUSH1 0x4 DUP3 ADD MSTORE SWAP3 SWAP1 SWAP2 AND PUSH1 0x24 DUP4 ADD MSTORE PUSH2 0xFFFF AND PUSH1 0x44 DUP3 ADD MSTORE PUSH1 0x64 DUP2 ADD DUP13 SWAP1 MSTORE PUSH0 PUSH1 0x84 DUP3 ADD MSTORE PUSH1 0xA4 ADD PUSH1 0x20 PUSH1 0x40 MLOAD DUP1 DUP4 SUB DUP2 PUSH0 DUP8 GAS CALL SWAP3 POP POP POP DUP1 ISZERO PUSH2 0x2BA2 JUMPI POP PUSH1 0x40 DUP1 MLOAD PUSH1 0x1F RETURNDATASIZE SWAP1 DUP2 ADD PUSH1 0x1F NOT AND DUP3 ADD SWAP1 SWAP3 MSTORE PUSH2 0x2B9F SWAP2 DUP2 ADD SWAP1 PUSH2 0x3AD9 JUMP JUMPDEST PUSH1 0x1 JUMPDEST ISZERO PUSH2 0x2CAE JUMPI POP PUSH1 0x5 SLOAD DUP9 MLOAD PUSH1 0x1 PUSH1 0x1 PUSH1 0xA0 SHL SUB SWAP1 SWAP2 AND SWAP1 PUSH4 0xF7729D43 SWAP1 DUP11 SWAP1 PUSH0 SWAP1 PUSH2 0x2BCF JUMPI PUSH2 0x2BCF PUSH2 0x3930 JUMP JUMPDEST PUSH1 0x20 MUL PUSH1 0x20 ADD ADD MLOAD DUP11 PUSH1 0x1 DUP2 MLOAD DUP2 LT PUSH2 0x2BEA JUMPI PUSH2 0x2BEA PUSH2 0x3930 JUMP JUMPDEST PUSH1 0x20 MUL PUSH1 0x20 ADD ADD MLOAD DUP5 PUSH1 0x2 PUSH1 0x3 DUP2 LT PUSH2 0x2C05 JUMPI PUSH2 0x2C05 PUSH2 0x3930 JUMP JUMPDEST PUSH1 0x20 MUL ADD MLOAD PUSH1 0x40 MLOAD PUSH32 0xFFFFFFFF00000000000000000000000000000000000000000000000000000000 PUSH1 0xE0 DUP7 SWAP1 SHL AND DUP2 MSTORE PUSH1 0x1 PUSH1 0x1 PUSH1 0xA0 SHL SUB SWAP4 DUP5 AND PUSH1 0x4 DUP3 ADD MSTORE SWAP3 SWAP1 SWAP2 AND PUSH1 0x24 DUP4 ADD MSTORE PUSH2 0xFFFF AND PUSH1 0x44 DUP3 ADD MSTORE PUSH1 0x64 DUP2 ADD DUP13 SWAP1 MSTORE PUSH0 PUSH1 0x84 DUP3 ADD MSTORE PUSH1 0xA4 ADD PUSH1 0x20 PUSH1 0x40 MLOAD DUP1 DUP4 SUB DUP2 PUSH0 DUP8 GAS CALL ISZERO DUP1 ISZERO PUSH2 0x2C84 JUMPI RETURNDATASIZE PUSH0 DUP1 RETURNDATACOPY RETURNDATASIZE PUSH0 REVERT JUMPDEST POP POP POP POP PUSH1 0x40 MLOAD RETURNDATASIZE PUSH1 0x1F NOT PUSH1 0x1F DUP3 ADD AND DUP3 ADD DUP1 PUSH1 0x40 MSTORE POP DUP2 ADD SWAP1 PUSH2 0x2CA8 SWAP2 SWAP1 PUSH2 0x3AD9 JUMP JUMPDEST PUSH1 0x60 DUP5 ADD MSTORE JUMPDEST PUSH0 JUMPDEST PUSH1 0x4 DUP2 LT ISZERO PUSH2 0x2D2E JUMPI DUP4 DUP2 PUSH1 0x4 DUP2 LT PUSH2 0x2CCB JUMPI PUSH2 0x2CCB PUSH2 0x3930 JUMP JUMPDEST PUSH1 0x20 MUL ADD MLOAD DUP7 LT ISZERO PUSH2 0x2D1E JUMPI DUP4 DUP2 PUSH1 0x4 DUP2 LT PUSH2 0x2CE9 JUMPI PUSH2 0x2CE9 PUSH2 0x3930 JUMP JUMPDEST PUSH1 0x20 MUL ADD MLOAD SWAP1 SWAP8 POP SWAP5 POP DUP7 DUP1 ISZERO PUSH2 0x2D1E JUMPI DUP2 PUSH2 0x2D06 PUSH1 0x1 DUP4 PUSH2 0x398A JUMP JUMPDEST PUSH1 0x3 DUP2 LT PUSH2 0x2D16 JUMPI PUSH2 0x2D16 PUSH2 0x3930 JUMP JUMPDEST PUSH1 0x20 MUL ADD MLOAD SWAP7 POP JUMPDEST PUSH2 0x2D27 DUP2 PUSH2 0x3AF0 JUMP JUMPDEST SWAP1 POP PUSH2 0x2CB0 JUMP JUMPDEST POP PUSH0 DUP9 PUSH0 DUP2 MLOAD DUP2 LT PUSH2 0x2D42 JUMPI PUSH2 0x2D42 PUSH2 0x3930 JUMP JUMPDEST PUSH1 0x20 MUL PUSH1 0x20 ADD ADD MLOAD PUSH1 0x1 PUSH1 0x1 PUSH1 0xA0 SHL SUB AND PUSH4 0x313CE567 PUSH1 0x40 MLOAD DUP2 PUSH4 0xFFFFFFFF AND PUSH1 0xE0 SHL DUP2 MSTORE PUSH1 0x4 ADD PUSH1 0x20 PUSH1 0x40 MLOAD DUP1 DUP4 SUB DUP2 DUP7 GAS STATICCALL ISZERO DUP1 ISZERO PUSH2 0x2D85 JUMPI RETURNDATASIZE PUSH0 DUP1 RETURNDATACOPY RETURNDATASIZE PUSH0 REVERT JUMPDEST POP POP POP POP PUSH1 0x40 MLOAD RETURNDATASIZE PUSH1 0x1F NOT PUSH1 0x1F DUP3 ADD AND DUP3 ADD DUP1 PUSH1 0x40 MSTORE POP DUP2 ADD SWAP1 PUSH2 0x2DA9 SWAP2 SWAP1 PUSH2 0x3B27 JUMP JUMPDEST PUSH2 0x2DB7 SWAP1 PUSH1 0xFF AND PUSH1 0xA PUSH2 0x3C60 JUMP JUMPDEST SWAP1 POP PUSH0 DUP7 ISZERO PUSH2 0x2DCD JUMPI PUSH2 0x2DCA DUP12 DUP9 PUSH2 0x2E38 JUMP JUMPDEST SWAP1 POP JUMPDEST PUSH2 0x2DD7 DUP3 DUP3 PUSH2 0x172C JUMP JUMPDEST SWAP6 POP POP POP POP POP POP SWAP3 SWAP6 SWAP2 SWAP5 POP SWAP3 POP JUMP JUMPDEST PUSH1 0x40 MLOAD PUSH1 0x1 PUSH1 0x1 PUSH1 0xA0 SHL SUB DUP1 DUP6 AND PUSH1 0x24 DUP4 ADD MSTORE DUP4 AND PUSH1 0x44 DUP3 ADD MSTORE PUSH1 0x64 DUP2 ADD DUP3 SWAP1 MSTORE PUSH2 0x1FF4 SWAP1 DUP6 SWAP1 PUSH32 0x23B872DD00000000000000000000000000000000000000000000000000000000 SWAP1 PUSH1 0x84 ADD PUSH2 0x16BB JUMP JUMPDEST PUSH0 DUP1 DUP3 GT PUSH2 0x2E88 JUMPI PUSH1 0x40 MLOAD PUSH3 0x461BCD PUSH1 0xE5 SHL DUP2 MSTORE PUSH1 0x20 PUSH1 0x4 DUP3 ADD MSTORE PUSH1 0x1A PUSH1 0x24 DUP3 ADD MSTORE PUSH32 0x536166654D6174683A206469766973696F6E206279207A65726F000000000000 PUSH1 0x44 DUP3 ADD MSTORE PUSH1 0x64 ADD PUSH2 0x673 JUMP JUMPDEST PUSH2 0x17C6 DUP3 DUP5 PUSH2 0x39B4 JUMP JUMPDEST PUSH2 0x2E9D PUSH1 0x10 DUP5 PUSH2 0x3324 JUMP JUMPDEST POP PUSH0 DUP4 DUP2 MSTORE PUSH1 0xF PUSH1 0x20 SWAP1 DUP2 MSTORE PUSH1 0x40 SWAP2 DUP3 SWAP1 KECCAK256 DUP4 MLOAD DUP2 SSTORE DUP2 DUP5 ADD MLOAD PUSH1 0x1 DUP3 ADD SSTORE SWAP2 DUP4 ADD MLOAD DUP1 MLOAD DUP5 SWAP4 SWAP3 PUSH2 0x2ED6 SWAP3 PUSH1 0x2 DUP6 ADD SWAP3 SWAP2 ADD SWAP1 PUSH2 0x35E5 JUMP JUMPDEST POP PUSH1 0x60 DUP3 ADD MLOAD PUSH1 0x3 DUP3 ADD DUP1 SLOAD PUSH32 0xFFFFFFFFFFFFFFFFFFFFFFFF0000000000000000000000000000000000000000 AND PUSH1 0x1 PUSH1 0x1 PUSH1 0xA0 SHL SUB SWAP3 DUP4 AND OR SWAP1 SSTORE PUSH1 0x80 DUP4 ADD MLOAD PUSH1 0x4 DUP4 ADD SSTORE PUSH1 0xA0 DUP4 ADD MLOAD PUSH1 0x5 DUP4 ADD SSTORE PUSH1 0xC0 DUP4 ADD MLOAD PUSH1 0x6 DUP4 ADD SSTORE PUSH1 0xE0 DUP4 ADD MLOAD PUSH1 0x7 DUP4 ADD DUP1 SLOAD PUSH2 0x100 DUP1 DUP8 ADD MLOAD PUSH1 0xFF SWAP5 DUP6 AND PUSH32 0xFFFFFFFFFFFFFFFFFFFFFFFFFFFFFFFFFFFFFFFFFFFFFFFFFFFFFFFFFFFF0000 SWAP1 SWAP4 AND SWAP3 SWAP1 SWAP3 OR SWAP4 SWAP1 SWAP2 AND MUL SWAP2 SWAP1 SWAP2 OR SWAP1 SSTORE PUSH2 0x120 DUP4 ADD MLOAD PUSH1 0x8 DUP4 ADD SSTORE PUSH2 0x140 DUP4 ADD MLOAD PUSH1 0x9 DUP4 ADD SSTORE PUSH2 0x160 DUP4 ADD MLOAD PUSH1 0xA DUP4 ADD SSTORE PUSH2 0x180 SWAP1 SWAP3 ADD MLOAD PUSH1 0xB SWAP1 SWAP2 ADD SSTORE DUP3 AND PUSH0 DUP2 DUP2 MSTORE PUSH1 0xD PUSH1 0x20 SWAP1 DUP2 MSTORE PUSH1 0x40 DUP1 DUP4 KECCAK256 PUSH1 0xC DUP1 DUP5 MSTORE DUP3 DUP6 KECCAK256 DUP1 SLOAD DUP7 MSTORE SWAP2 DUP5 MSTORE DUP3 DUP6 KECCAK256 DUP10 SWAP1 SSTORE DUP6 DUP6 MSTORE DUP2 SLOAD PUSH1 0xE DUP6 MSTORE DUP4 DUP7 KECCAK256 DUP11 DUP8 MSTORE DUP6 MSTORE SWAP3 DUP6 KECCAK256 DUP4 SWAP1 SSTORE SWAP5 DUP5 MSTORE SWAP4 SWAP1 SWAP2 MSTORE PUSH1 0x1 SWAP3 SWAP2 SWAP1 PUSH2 0x2FFD SWAP1 DUP5 SWAP1 PUSH2 0x3A05 JUMP JUMPDEST SWAP1 SWAP2 SSTORE POP POP POP POP POP JUMP JUMPDEST DUP2 SLOAD PUSH0 SWAP1 DUP3 LT PUSH2 0x307F JUMPI PUSH1 0x40 MLOAD PUSH3 0x461BCD PUSH1 0xE5 SHL DUP2 MSTORE PUSH1 0x20 PUSH1 0x4 DUP3 ADD MSTORE PUSH1 0x22 PUSH1 0x24 DUP3 ADD MSTORE PUSH32 0x456E756D657261626C655365743A20696E646578206F7574206F6620626F756E PUSH1 0x44 DUP3 ADD MSTORE PUSH32 0x6473000000000000000000000000000000000000000000000000000000000000 PUSH1 0x64 DUP3 ADD MSTORE PUSH1 0x84 ADD PUSH2 0x673 JUMP JUMPDEST DUP3 PUSH0 ADD DUP3 DUP2 SLOAD DUP2 LT PUSH2 0x3093 JUMPI PUSH2 0x3093 PUSH2 0x3930 JUMP JUMPDEST SWAP1 PUSH0 MSTORE PUSH1 0x20 PUSH0 KECCAK256 ADD SLOAD SWAP1 POP SWAP3 SWAP2 POP POP JUMP JUMPDEST PUSH0 PUSH2 0x17C6 DUP4 DUP4 PUSH2 0x332F JUMP JUMPDEST PUSH0 DUP5 MLOAD PUSH1 0x2 EQ PUSH2 0x30BD JUMPI PUSH0 DUP1 REVERT JUMPDEST DUP3 PUSH0 SUB PUSH2 0x318C JUMPI PUSH1 0x3 SLOAD DUP6 MLOAD PUSH2 0x3109 SWAP2 PUSH1 0x1 PUSH1 0x1 PUSH1 0xA0 SHL SUB AND SWAP1 DUP9 SWAP1 DUP9 SWAP1 PUSH0 SWAP1 PUSH2 0x30E9 JUMPI PUSH2 0x30E9 PUSH2 0x3930 JUMP JUMPDEST PUSH1 0x20 MUL PUSH1 0x20 ADD ADD MLOAD PUSH1 0x1 PUSH1 0x1 PUSH1 0xA0 SHL SUB AND PUSH2 0x3411 SWAP1 SWAP3 SWAP2 SWAP1 PUSH4 0xFFFFFFFF AND JUMP JUMPDEST PUSH1 0x3 SLOAD PUSH1 0x40 MLOAD PUSH32 0x5C11D79500000000000000000000000000000000000000000000000000000000 DUP2 MSTORE PUSH1 0x1 PUSH1 0x1 PUSH1 0xA0 SHL SUB SWAP1 SWAP2 AND SWAP1 PUSH4 0x5C11D795 SWAP1 PUSH2 0x315A SWAP1 DUP10 SWAP1 PUSH0 SWAP1 DUP11 SWAP1 DUP11 SWAP1 TIMESTAMP SWAP1 PUSH1 0x4 ADD PUSH2 0x3C6B JUMP JUMPDEST PUSH0 PUSH1 0x40 MLOAD DUP1 DUP4 SUB DUP2 PUSH0 DUP8 DUP1 EXTCODESIZE ISZERO DUP1 ISZERO PUSH2 0x3171 JUMPI PUSH0 DUP1 REVERT JUMPDEST POP GAS CALL ISZERO DUP1 ISZERO PUSH2 0x3183 JUMPI RETURNDATASIZE PUSH0 DUP1 RETURNDATACOPY RETURNDATASIZE PUSH0 REVERT JUMPDEST POP POP POP POP PUSH2 0x3318 JUMP JUMPDEST PUSH1 0x2 SLOAD DUP6 MLOAD PUSH2 0x31B1 SWAP2 PUSH1 0x1 PUSH1 0x1 PUSH1 0xA0 SHL SUB AND SWAP1 DUP9 SWAP1 DUP9 SWAP1 PUSH0 SWAP1 PUSH2 0x30E9 JUMPI PUSH2 0x30E9 PUSH2 0x3930 JUMP JUMPDEST PUSH0 PUSH1 0x40 MLOAD DUP1 PUSH2 0x100 ADD PUSH1 0x40 MSTORE DUP1 DUP8 PUSH0 DUP2 MLOAD DUP2 LT PUSH2 0x31D0 JUMPI PUSH2 0x31D0 PUSH2 0x3930 JUMP JUMPDEST PUSH1 0x20 MUL PUSH1 0x20 ADD ADD MLOAD PUSH1 0x1 PUSH1 0x1 PUSH1 0xA0 SHL SUB AND DUP2 MSTORE PUSH1 0x20 ADD DUP8 PUSH1 0x1 DUP2 MLOAD DUP2 LT PUSH2 0x31F9 JUMPI PUSH2 0x31F9 PUSH2 0x3930 JUMP JUMPDEST PUSH1 0x20 SWAP1 DUP2 MUL SWAP2 SWAP1 SWAP2 ADD DUP2 ADD MLOAD PUSH1 0x1 PUSH1 0x1 PUSH1 0xA0 SHL SUB SWAP1 DUP2 AND DUP4 MSTORE PUSH2 0xFFFF DUP8 AND DUP4 DUP4 ADD MSTORE DUP9 DUP2 AND PUSH1 0x40 DUP1 DUP6 ADD SWAP2 SWAP1 SWAP2 MSTORE TIMESTAMP PUSH1 0x60 DUP1 DUP7 ADD SWAP2 SWAP1 SWAP2 MSTORE PUSH1 0x80 DUP1 DUP7 ADD DUP15 SWAP1 MSTORE PUSH0 PUSH1 0xA0 DUP1 DUP9 ADD DUP3 SWAP1 MSTORE PUSH1 0xC0 SWAP8 DUP9 ADD SWAP2 SWAP1 SWAP2 MSTORE PUSH1 0x2 SLOAD DUP5 MLOAD PUSH32 0x414BF38900000000000000000000000000000000000000000000000000000000 DUP2 MSTORE DUP10 MLOAD DUP8 AND PUSH1 0x4 DUP3 ADD MSTORE SWAP7 DUP10 ADD MLOAD DUP7 AND PUSH1 0x24 DUP9 ADD MSTORE SWAP4 DUP9 ADD MLOAD PUSH3 0xFFFFFF AND PUSH1 0x44 DUP8 ADD MSTORE SWAP2 DUP8 ADD MLOAD DUP5 AND PUSH1 0x64 DUP7 ADD MSTORE DUP7 ADD MLOAD PUSH1 0x84 DUP6 ADD MSTORE DUP6 ADD MLOAD PUSH1 0xA4 DUP5 ADD MSTORE SWAP3 DUP5 ADD MLOAD PUSH1 0xC4 DUP4 ADD MSTORE PUSH1 0xE0 DUP5 ADD MLOAD DUP2 AND PUSH1 0xE4 DUP4 ADD MSTORE SWAP3 SWAP4 POP SWAP2 AND SWAP1 PUSH4 0x414BF389 SWAP1 PUSH2 0x104 ADD PUSH1 0x20 PUSH1 0x40 MLOAD DUP1 DUP4 SUB DUP2 PUSH0 DUP8 GAS CALL ISZERO DUP1 ISZERO PUSH2 0x32F1 JUMPI RETURNDATASIZE PUSH0 DUP1 RETURNDATACOPY RETURNDATASIZE PUSH0 REVERT JUMPDEST POP POP POP POP PUSH1 0x40 MLOAD RETURNDATASIZE PUSH1 0x1F NOT PUSH1 0x1F DUP3 ADD AND DUP3 ADD DUP1 PUSH1 0x40 MSTORE POP DUP2 ADD SWAP1 PUSH2 0x3315 SWAP2 SWAP1 PUSH2 0x3AD9 JUMP JUMPDEST POP POP JUMPDEST POP PUSH1 0x1 SWAP6 SWAP5 POP POP POP POP POP JUMP JUMPDEST PUSH0 PUSH2 0x17C6 DUP4 DUP4 PUSH2 0x355D JUMP JUMPDEST PUSH0 DUP2 DUP2 MSTORE PUSH1 0x1 DUP4 ADD PUSH1 0x20 MSTORE PUSH1 0x40 DUP2 KECCAK256 SLOAD DUP1 ISZERO PUSH2 0x3408 JUMPI PUSH0 PUSH2 0x3351 PUSH1 0x1 DUP4 PUSH2 0x398A JUMP JUMPDEST DUP6 SLOAD SWAP1 SWAP2 POP PUSH0 SWAP1 PUSH2 0x3364 SWAP1 PUSH1 0x1 SWAP1 PUSH2 0x398A JUMP JUMPDEST SWAP1 POP PUSH0 DUP7 PUSH0 ADD DUP3 DUP2 SLOAD DUP2 LT PUSH2 0x337B JUMPI PUSH2 0x337B PUSH2 0x3930 JUMP JUMPDEST SWAP1 PUSH0 MSTORE PUSH1 0x20 PUSH0 KECCAK256 ADD SLOAD SWAP1 POP DUP1 DUP8 PUSH0 ADD DUP5 DUP2 SLOAD DUP2 LT PUSH2 0x339B JUMPI PUSH2 0x339B PUSH2 0x3930 JUMP JUMPDEST PUSH0 SWAP2 DUP3 MSTORE PUSH1 0x20 SWAP1 SWAP2 KECCAK256 ADD SSTORE PUSH2 0x33B1 DUP4 PUSH1 0x1 PUSH2 0x3A05 JUMP JUMPDEST PUSH0 DUP3 DUP2 MSTORE PUSH1 0x1 DUP10 ADD PUSH1 0x20 MSTORE PUSH1 0x40 SWAP1 KECCAK256 SSTORE DUP7 SLOAD DUP8 SWAP1 DUP1 PUSH2 0x33D2 JUMPI PUSH2 0x33D2 PUSH2 0x3CA6 JUMP JUMPDEST PUSH1 0x1 SWAP1 SUB DUP2 DUP2 SWAP1 PUSH0 MSTORE PUSH1 0x20 PUSH0 KECCAK256 ADD PUSH0 SWAP1 SSTORE SWAP1 SSTORE DUP7 PUSH1 0x1 ADD PUSH0 DUP8 DUP2 MSTORE PUSH1 0x20 ADD SWAP1 DUP2 MSTORE PUSH1 0x20 ADD PUSH0 KECCAK256 PUSH0 SWAP1 SSTORE PUSH1 0x1 SWAP5 POP POP POP POP POP PUSH2 0xCA2 JUMP JUMPDEST PUSH0 SWAP2 POP POP PUSH2 0xCA2 JUMP JUMPDEST DUP1 ISZERO DUP1 PUSH2 0x34A2 JUMPI POP PUSH1 0x40 MLOAD PUSH32 0xDD62ED3E00000000000000000000000000000000000000000000000000000000 DUP2 MSTORE ADDRESS PUSH1 0x4 DUP3 ADD MSTORE PUSH1 0x1 PUSH1 0x1 PUSH1 0xA0 SHL SUB DUP4 DUP2 AND PUSH1 0x24 DUP4 ADD MSTORE DUP5 AND SWAP1 PUSH4 0xDD62ED3E SWAP1 PUSH1 0x44 ADD PUSH1 0x20 PUSH1 0x40 MLOAD DUP1 DUP4 SUB DUP2 DUP7 GAS STATICCALL ISZERO DUP1 ISZERO PUSH2 0x347C JUMPI RETURNDATASIZE PUSH0 DUP1 RETURNDATACOPY RETURNDATASIZE PUSH0 REVERT JUMPDEST POP POP POP POP PUSH1 0x40 MLOAD RETURNDATASIZE PUSH1 0x1F NOT PUSH1 0x1F DUP3 ADD AND DUP3 ADD DUP1 PUSH1 0x40 MSTORE POP DUP2 ADD SWAP1 PUSH2 0x34A0 SWAP2 SWAP1 PUSH2 0x3AD9 JUMP JUMPDEST ISZERO JUMPDEST PUSH2 0x3514 JUMPI PUSH1 0x40 MLOAD PUSH3 0x461BCD PUSH1 0xE5 SHL DUP2 MSTORE PUSH1 0x20 PUSH1 0x4 DUP3 ADD MSTORE PUSH1 0x36 PUSH1 0x24 DUP3 ADD MSTORE PUSH32 0x5361666545524332303A20617070726F76652066726F6D206E6F6E2D7A65726F PUSH1 0x44 DUP3 ADD MSTORE PUSH32 0x20746F206E6F6E2D7A65726F20616C6C6F77616E636500000000000000000000 PUSH1 0x64 DUP3 ADD MSTORE PUSH1 0x84 ADD PUSH2 0x673 JUMP JUMPDEST PUSH1 0x40 MLOAD PUSH1 0x1 PUSH1 0x1 PUSH1 0xA0 SHL SUB DUP4 AND PUSH1 0x24 DUP3 ADD MSTORE PUSH1 0x44 DUP2 ADD DUP3 SWAP1 MSTORE PUSH2 0x171E SWAP1 DUP5 SWAP1 PUSH32 0x95EA7B300000000000000000000000000000000000000000000000000000000 SWAP1 PUSH1 0x64 ADD PUSH2 0x16BB JUMP JUMPDEST PUSH0 DUP2 DUP2 MSTORE PUSH1 0x1 DUP4 ADD PUSH1 0x20 MSTORE PUSH1 0x40 DUP2 KECCAK256 SLOAD PUSH2 0x35A2 JUMPI POP DUP2 SLOAD PUSH1 0x1 DUP2 DUP2 ADD DUP5 SSTORE PUSH0 DUP5 DUP2 MSTORE PUSH1 0x20 DUP1 DUP3 KECCAK256 SWAP1 SWAP4 ADD DUP5 SWAP1 SSTORE DUP5 SLOAD DUP5 DUP3 MSTORE DUP3 DUP7 ADD SWAP1 SWAP4 MSTORE PUSH1 0x40 SWAP1 KECCAK256 SWAP2 SWAP1 SWAP2 SSTORE PUSH2 0xCA2 JUMP JUMPDEST POP PUSH0 PUSH2 0xCA2 JUMP JUMPDEST POP DUP1 SLOAD PUSH0 DUP3 SSTORE SWAP1 PUSH0 MSTORE PUSH1 0x20 PUSH0 KECCAK256 SWAP1 DUP2 ADD SWAP1 PUSH2 0x35C4 SWAP2 SWAP1 PUSH2 0x3660 JUMP JUMPDEST POP JUMP JUMPDEST PUSH1 0x40 MLOAD DUP1 PUSH1 0x80 ADD PUSH1 0x40 MSTORE DUP1 PUSH1 0x4 SWAP1 PUSH1 0x20 DUP3 MUL DUP1 CALLDATASIZE DUP4 CALLDATACOPY POP SWAP2 SWAP3 SWAP2 POP POP JUMP JUMPDEST DUP3 DUP1 SLOAD DUP3 DUP3 SSTORE SWAP1 PUSH0 MSTORE PUSH1 0x20 PUSH0 KECCAK256 SWAP1 DUP2 ADD SWAP3 DUP3 ISZERO PUSH2 0x3650 JUMPI SWAP2 PUSH1 0x20 MUL DUP3 ADD JUMPDEST DUP3 DUP2 GT ISZERO PUSH2 0x3650 JUMPI DUP3 MLOAD DUP3 SLOAD PUSH32 0xFFFFFFFFFFFFFFFFFFFFFFFF0000000000000000000000000000000000000000 AND PUSH1 0x1 PUSH1 0x1 PUSH1 0xA0 SHL SUB SWAP1 SWAP2 AND OR DUP3 SSTORE PUSH1 0x20 SWAP1 SWAP3 ADD SWAP2 PUSH1 0x1 SWAP1 SWAP2 ADD SWAP1 PUSH2 0x3603 JUMP JUMPDEST POP PUSH2 0x365C SWAP3 SWAP2 POP PUSH2 0x3660 JUMP JUMPDEST POP SWAP1 JUMP JUMPDEST JUMPDEST DUP1 DUP3 GT ISZERO PUSH2 0x365C JUMPI PUSH0 DUP2 SSTORE PUSH1 0x1 ADD PUSH2 0x3661 JUMP JUMPDEST DUP1 CALLDATALOAD PUSH1 0x1 PUSH1 0x1 PUSH1 0xA0 SHL SUB DUP2 AND DUP2 EQ PUSH2 0x368A JUMPI PUSH0 DUP1 REVERT JUMPDEST SWAP2 SWAP1 POP JUMP JUMPDEST PUSH0 PUSH1 0x20 DUP3 DUP5 SUB SLT ISZERO PUSH2 0x369F JUMPI PUSH0 DUP1 REVERT JUMPDEST PUSH2 0x17C6 DUP3 PUSH2 0x3674 JUMP JUMPDEST PUSH1 0xFF DUP2 AND DUP2 EQ PUSH2 0x35C4 JUMPI PUSH0 DUP1 REVERT JUMPDEST PUSH32 0x4E487B7100000000000000000000000000000000000000000000000000000000 PUSH0 MSTORE PUSH1 0x41 PUSH1 0x4 MSTORE PUSH1 0x24 PUSH0 REVERT JUMPDEST PUSH1 0x40 DUP1 MLOAD SWAP1 DUP2 ADD PUSH8 0xFFFFFFFFFFFFFFFF DUP2 GT DUP3 DUP3 LT OR ISZERO PUSH2 0x3706 JUMPI PUSH2 0x3706 PUSH2 0x36B6 JUMP JUMPDEST PUSH1 0x40 MSTORE SWAP1 JUMP JUMPDEST PUSH1 0x40 MLOAD PUSH1 0x1F DUP3 ADD PUSH1 0x1F NOT AND DUP2 ADD PUSH8 0xFFFFFFFFFFFFFFFF DUP2 GT DUP3 DUP3 LT OR ISZERO PUSH2 0x3735 JUMPI PUSH2 0x3735 PUSH2 0x36B6 JUMP JUMPDEST PUSH1 0x40 MSTORE SWAP2 SWAP1 POP JUMP JUMPDEST PUSH0 DUP1 PUSH0 DUP1 PUSH0 DUP1 PUSH1 0xE0 DUP8 DUP10 SUB SLT ISZERO PUSH2 0x3752 JUMPI PUSH0 DUP1 REVERT JUMPDEST DUP7 CALLDATALOAD SWAP6 POP PUSH1 0x20 PUSH2 0x3763 DUP2 DUP10 ADD PUSH2 0x3674 JUMP JUMPDEST SWAP6 POP PUSH2 0x3771 PUSH1 0x40 DUP10 ADD PUSH2 0x3674 JUMP JUMPDEST SWAP5 POP PUSH1 0x60 DUP9 ADD CALLDATALOAD SWAP4 POP PUSH1 0x80 DUP9 ADD CALLDATALOAD PUSH2 0x3788 DUP2 PUSH2 0x36A8 JUMP JUMPDEST SWAP3 POP PUSH1 0xBF DUP9 ADD DUP10 SGT PUSH2 0x3798 JUMPI PUSH0 DUP1 REVERT JUMPDEST PUSH2 0x37A0 PUSH2 0x36E3 JUMP JUMPDEST DUP1 PUSH1 0xE0 DUP11 ADD DUP12 DUP2 GT ISZERO PUSH2 0x37B1 JUMPI PUSH0 DUP1 REVERT JUMPDEST PUSH1 0xA0 DUP12 ADD JUMPDEST DUP2 DUP2 LT ISZERO PUSH2 0x37CD JUMPI DUP1 CALLDATALOAD DUP5 MSTORE SWAP3 DUP5 ADD SWAP3 DUP5 ADD PUSH2 0x37B6 JUMP JUMPDEST POP POP DUP1 SWAP4 POP POP POP POP SWAP3 SWAP6 POP SWAP3 SWAP6 POP SWAP3 SWAP6 JUMP JUMPDEST PUSH0 DUP1 PUSH1 0x40 DUP4 DUP6 SUB SLT ISZERO PUSH2 0x37F0 JUMPI PUSH0 DUP1 REVERT JUMPDEST PUSH2 0x37F9 DUP4 PUSH2 0x3674 JUMP JUMPDEST SWAP5 PUSH1 0x20 SWAP4 SWAP1 SWAP4 ADD CALLDATALOAD SWAP4 POP POP POP JUMP JUMPDEST PUSH0 PUSH1 0x20 DUP3 DUP5 SUB SLT ISZERO PUSH2 0x3817 JUMPI PUSH0 DUP1 REVERT JUMPDEST POP CALLDATALOAD SWAP2 SWAP1 POP JUMP JUMPDEST PUSH0 DUP2 MLOAD DUP1 DUP5 MSTORE PUSH1 0x20 DUP1 DUP6 ADD SWAP5 POP DUP1 DUP5 ADD PUSH0 JUMPDEST DUP4 DUP2 LT ISZERO PUSH2 0x3855 JUMPI DUP2 MLOAD PUSH1 0x1 PUSH1 0x1 PUSH1 0xA0 SHL SUB AND DUP8 MSTORE SWAP6 DUP3 ADD SWAP6 SWAP1 DUP3 ADD SWAP1 PUSH1 0x1 ADD PUSH2 0x3830 JUMP JUMPDEST POP SWAP5 SWAP6 SWAP5 POP POP POP POP POP JUMP JUMPDEST PUSH1 0x20 DUP2 MSTORE DUP2 MLOAD PUSH1 0x20 DUP3 ADD MSTORE PUSH1 0x20 DUP3 ADD MLOAD PUSH1 0x40 DUP3 ADD MSTORE PUSH0 PUSH1 0x40 DUP4 ADD MLOAD PUSH2 0x1A0 DUP1 PUSH1 0x60 DUP6 ADD MSTORE PUSH2 0x3892 PUSH2 0x1C0 DUP6 ADD DUP4 PUSH2 0x381E JUMP JUMPDEST SWAP2 POP PUSH1 0x60 DUP6 ADD MLOAD PUSH2 0x38AE PUSH1 0x80 DUP7 ADD DUP3 PUSH1 0x1 PUSH1 0x1 PUSH1 0xA0 SHL SUB AND SWAP1 MSTORE JUMP JUMPDEST POP PUSH1 0x80 DUP6 ADD MLOAD PUSH1 0xA0 DUP6 ADD MSTORE PUSH1 0xA0 DUP6 ADD MLOAD PUSH1 0xC0 DUP6 ADD MSTORE PUSH1 0xC0 DUP6 ADD MLOAD PUSH1 0xE0 DUP6 ADD MSTORE PUSH1 0xE0 DUP6 ADD MLOAD PUSH2 0x100 PUSH2 0x38E3 DUP2 DUP8 ADD DUP4 PUSH1 0xFF AND SWAP1 MSTORE JUMP JUMPDEST DUP7 ADD MLOAD SWAP1 POP PUSH2 0x120 PUSH2 0x38F9 DUP7 DUP3 ADD DUP4 PUSH1 0xFF AND SWAP1 MSTORE JUMP JUMPDEST DUP7 ADD MLOAD PUSH2 0x140 DUP7 DUP2 ADD SWAP2 SWAP1 SWAP2 MSTORE DUP7 ADD MLOAD PUSH2 0x160 DUP1 DUP8 ADD SWAP2 SWAP1 SWAP2 MSTORE DUP7 ADD MLOAD PUSH2 0x180 DUP1 DUP8 ADD SWAP2 SWAP1 SWAP2 MSTORE SWAP1 SWAP6 ADD MLOAD SWAP4 ADD SWAP3 SWAP1 SWAP3 MSTORE POP SWAP2 SWAP1 POP JUMP JUMPDEST PUSH32 0x4E487B7100000000000000000000000000000000000000000000000000000000 PUSH0 MSTORE PUSH1 0x32 PUSH1 0x4 MSTORE PUSH1 0x24 PUSH0 REVERT JUMPDEST PUSH32 0x4E487B7100000000000000000000000000000000000000000000000000000000 PUSH0 MSTORE PUSH1 0x11 PUSH1 0x4 MSTORE PUSH1 0x24 PUSH0 REVERT JUMPDEST DUP2 DUP2 SUB DUP2 DUP2 GT ISZERO PUSH2 0xCA2 JUMPI PUSH2 0xCA2 PUSH2 0x395D JUMP JUMPDEST DUP1 DUP3 MUL DUP2 ISZERO DUP3 DUP3 DIV DUP5 EQ OR PUSH2 0xCA2 JUMPI PUSH2 0xCA2 PUSH2 0x395D JUMP JUMPDEST PUSH0 DUP3 PUSH2 0x39E7 JUMPI PUSH32 0x4E487B7100000000000000000000000000000000000000000000000000000000 PUSH0 MSTORE PUSH1 0x12 PUSH1 0x4 MSTORE PUSH1 0x24 PUSH0 REVERT JUMPDEST POP DIV SWAP1 JUMP JUMPDEST PUSH1 0xFF DUP3 DUP2 AND DUP3 DUP3 AND SUB SWAP1 DUP2 GT ISZERO PUSH2 0xCA2 JUMPI PUSH2 0xCA2 PUSH2 0x395D JUMP JUMPDEST DUP1 DUP3 ADD DUP1 DUP3 GT ISZERO PUSH2 0xCA2 JUMPI PUSH2 0xCA2 PUSH2 0x395D JUMP JUMPDEST DUP3 DUP2 MSTORE PUSH1 0x40 PUSH1 0x20 DUP3 ADD MSTORE PUSH0 PUSH2 0x3A30 PUSH1 0x40 DUP4 ADD DUP5 PUSH2 0x381E JUMP JUMPDEST SWAP5 SWAP4 POP POP POP POP JUMP JUMPDEST PUSH0 PUSH1 0x20 DUP1 DUP4 DUP6 SUB SLT ISZERO PUSH2 0x3A49 JUMPI PUSH0 DUP1 REVERT JUMPDEST DUP3 MLOAD PUSH8 0xFFFFFFFFFFFFFFFF DUP1 DUP3 GT ISZERO PUSH2 0x3A60 JUMPI PUSH0 DUP1 REVERT JUMPDEST DUP2 DUP6 ADD SWAP2 POP DUP6 PUSH1 0x1F DUP4 ADD SLT PUSH2 0x3A73 JUMPI PUSH0 DUP1 REVERT JUMPDEST DUP2 MLOAD DUP2 DUP2 GT ISZERO PUSH2 0x3A85 JUMPI PUSH2 0x3A85 PUSH2 0x36B6 JUMP JUMPDEST DUP1 PUSH1 0x5 SHL SWAP2 POP PUSH2 0x3A96 DUP5 DUP4 ADD PUSH2 0x370C JUMP JUMPDEST DUP2 DUP2 MSTORE SWAP2 DUP4 ADD DUP5 ADD SWAP2 DUP5 DUP2 ADD SWAP1 DUP9 DUP5 GT ISZERO PUSH2 0x3AAF JUMPI PUSH0 DUP1 REVERT JUMPDEST SWAP4 DUP6 ADD SWAP4 JUMPDEST DUP4 DUP6 LT ISZERO PUSH2 0x3ACD JUMPI DUP5 MLOAD DUP3 MSTORE SWAP4 DUP6 ADD SWAP4 SWAP1 DUP6 ADD SWAP1 PUSH2 0x3AB4 JUMP JUMPDEST SWAP9 SWAP8 POP POP POP POP POP POP POP POP JUMP JUMPDEST PUSH0 PUSH1 0x20 DUP3 DUP5 SUB SLT ISZERO PUSH2 0x3AE9 JUMPI PUSH0 DUP1 REVERT JUMPDEST POP MLOAD SWAP2 SWAP1 POP JUMP JUMPDEST PUSH0 PUSH32 0xFFFFFFFFFFFFFFFFFFFFFFFFFFFFFFFFFFFFFFFFFFFFFFFFFFFFFFFFFFFFFFFF DUP3 SUB PUSH2 0x3B20 JUMPI PUSH2 0x3B20 PUSH2 0x395D JUMP JUMPDEST POP PUSH1 0x1 ADD SWAP1 JUMP JUMPDEST PUSH0 PUSH1 0x20 DUP3 DUP5 SUB SLT ISZERO PUSH2 0x3B37 JUMPI PUSH0 DUP1 REVERT JUMPDEST DUP2 MLOAD PUSH2 0x17C6 DUP2 PUSH2 0x36A8 JUMP JUMPDEST PUSH1 0x1 DUP2 DUP2 JUMPDEST DUP1 DUP6 GT ISZERO PUSH2 0x3B9B JUMPI DUP2 PUSH32 0xFFFFFFFFFFFFFFFFFFFFFFFFFFFFFFFFFFFFFFFFFFFFFFFFFFFFFFFFFFFFFFFF DIV DUP3 GT ISZERO PUSH2 0x3B81 JUMPI PUSH2 0x3B81 PUSH2 0x395D JUMP JUMPDEST DUP1 DUP6 AND ISZERO PUSH2 0x3B8E JUMPI SWAP2 DUP2 MUL SWAP2 JUMPDEST SWAP4 DUP5 SHR SWAP4 SWAP1 DUP1 MUL SWAP1 PUSH2 0x3B47 JUMP JUMPDEST POP SWAP3 POP SWAP3 SWAP1 POP JUMP JUMPDEST PUSH0 DUP3 PUSH2 0x3BB1 JUMPI POP PUSH1 0x1 PUSH2 0xCA2 JUMP JUMPDEST DUP2 PUSH2 0x3BBD JUMPI POP PUSH0 PUSH2 0xCA2 JUMP JUMPDEST DUP2 PUSH1 0x1 DUP2 EQ PUSH2 0x3BD3 JUMPI PUSH1 0x2 DUP2 EQ PUSH2 0x3BDD JUMPI PUSH2 0x3BF9 JUMP JUMPDEST PUSH1 0x1 SWAP2 POP POP PUSH2 0xCA2 JUMP JUMPDEST PUSH1 0xFF DUP5 GT ISZERO PUSH2 0x3BEE JUMPI PUSH2 0x3BEE PUSH2 0x395D JUMP JUMPDEST POP POP PUSH1 0x1 DUP3 SHL PUSH2 0xCA2 JUMP JUMPDEST POP PUSH1 0x20 DUP4 LT PUSH2 0x133 DUP4 LT AND PUSH1 0x4E DUP5 LT PUSH1 0xB DUP5 LT AND OR ISZERO PUSH2 0x3C1C JUMPI POP DUP2 DUP2 EXP PUSH2 0xCA2 JUMP JUMPDEST PUSH2 0x3C26 DUP4 DUP4 PUSH2 0x3B42 JUMP JUMPDEST DUP1 PUSH32 0xFFFFFFFFFFFFFFFFFFFFFFFFFFFFFFFFFFFFFFFFFFFFFFFFFFFFFFFFFFFFFFFF DIV DUP3 GT ISZERO PUSH2 0x3C58 JUMPI PUSH2 0x3C58 PUSH2 0x395D JUMP JUMPDEST MUL SWAP4 SWAP3 POP POP POP JUMP JUMPDEST PUSH0 PUSH2 0x17C6 DUP4 DUP4 PUSH2 0x3BA3 JUMP JUMPDEST DUP6 DUP2 MSTORE DUP5 PUSH1 0x20 DUP3 ADD MSTORE PUSH1 0xA0 PUSH1 0x40 DUP3 ADD MSTORE PUSH0 PUSH2 0x3C89 PUSH1 0xA0 DUP4 ADD DUP7 PUSH2 0x381E JUMP JUMPDEST PUSH1 0x1 PUSH1 0x1 PUSH1 0xA0 SHL SUB SWAP5 SWAP1 SWAP5 AND PUSH1 0x60 DUP4 ADD MSTORE POP PUSH1 0x80 ADD MSTORE SWAP4 SWAP3 POP POP POP JUMP JUMPDEST PUSH32 0x4E487B7100000000000000000000000000000000000000000000000000000000 PUSH0 MSTORE PUSH1 0x31 PUSH1 0x4 MSTORE PUSH1 0x24 PUSH0 REVERT INVALID LOG2 PUSH5 0x6970667358 0x22 SLT KECCAK256 SWAP10 0xDD 0x28 0x2E MSIZE DUP10 0x4F 0xAD RETURNDATACOPY 0xAE EXTCODESIZE DUP5 0xDE EXTCODEHASH 0xBA PUSH4 0xA0D701B6 MUL 0xD8 0xBC CALLER 0xE5 0xBA 0xAB RETURNDATACOPY 0xA6 SAR MSTORE8 0xE5 PUSH5 0x736F6C6343 STOP ADDMOD EQ STOP CALLER "
		},
		"gasEstimates": {
			"creation": {
				"codeDepositCost": "3125000",
				"executionCost": "infinite",
				"totalCost": "infinite"
			},
			"external": {
				"cancelOrder(bytes32)": "infinite",
				"createOrder(uint256,address,address,uint256,uint8,uint256[2])": "infinite",
				"forceCancelOrder(bytes32)": "infinite",
				"gasAmountForWithdraw()": "2352",
				"gasUsedPerTX()": "2372",
				"getOrder(bytes32)": "infinite",
				"getOrderAt(uint256)": "6825",
				"indexOfUserByOrderID(address,bytes32)": "2688",
				"keeper()": "2402",
				"orderIdOfUserByIndex(address,uint256)": "2665",
				"ordersCreatedByUser(address)": "2617",
				"owner()": "2386",
				"pause()": "29846",
				"paused()": "2337",
				"performUpkeep(bytes32)": "infinite",
				"quoter()": "2424",
				"recieveGas()": "infinite",
				"recieveTokenFees(address)": "14283",
				"renounceOwnership()": "30260",
				"setUniswapV3Router(address)": "26834",
				"tokenAmountForWithdraw(address)": "2616",
				"totalOrders()": "2446",
				"transferOwnership(address)": "30528",
				"uniswapV2Router()": "2404",
				"uniswapV3Router()": "2382",
				"unpause()": "29782",
				"updateFee(uint256)": "24543",
				"updateFeeWallet(address)": "26776",
				"updateKeeper(address)": "26819"
			},
			"internal": {
				"_checksForCreateOrder(uint256,address,address,uint256,uint8,uint256[2] memory,uint256,uint256)": "infinite",
				"_createOrder(uint256,address,address,uint256,uint8,uint256[2] memory,address,uint256)": "infinite",
				"_deleteOrder(bytes32,address)": "infinite",
				"_performSwap(bytes32)": "infinite",
				"_returnFunds(uint256,address,address,uint256)": "infinite",
				"_update(bytes32,address,struct DCA.Order memory)": "infinite",
				"findExchangeAndExecute(uint256,address[] memory,address,uint256,uint16)": "infinite",
				"getPrice(uint256,address[] memory)": "infinite"
			}
		},
		"methodIdentifiers": {
			"cancelOrder(bytes32)": "7489ec23",
			"createOrder(uint256,address,address,uint256,uint8,uint256[2])": "2e3d1174",
			"forceCancelOrder(bytes32)": "95048d46",
			"gasAmountForWithdraw()": "04e57eb7",
			"gasUsedPerTX()": "54694a42",
			"getOrder(bytes32)": "5778472a",
			"getOrderAt(uint256)": "73a423d0",
			"indexOfUserByOrderID(address,bytes32)": "36888652",
			"keeper()": "aced1661",
			"orderIdOfUserByIndex(address,uint256)": "530e3794",
			"ordersCreatedByUser(address)": "1db5c451",
			"owner()": "8da5cb5b",
			"pause()": "8456cb59",
			"paused()": "5c975abb",
			"performUpkeep(bytes32)": "a1e9b511",
			"quoter()": "c6bbd5a7",
			"recieveGas()": "14bff9bd",
			"recieveTokenFees(address)": "01f9b871",
			"renounceOwnership()": "715018a6",
			"setUniswapV3Router(address)": "0e8eec7b",
			"tokenAmountForWithdraw(address)": "8918298c",
			"totalOrders()": "1d834409",
			"transferOwnership(address)": "f2fde38b",
			"uniswapV2Router()": "1694505e",
			"uniswapV3Router()": "2c76d7a6",
			"unpause()": "3f4ba83a",
			"updateFee(uint256)": "9012c4a8",
			"updateFeeWallet(address)": "66718524",
			"updateKeeper(address)": "97790217"
		}
	},
	"abi": [
		{
			"inputs": [
				{
					"internalType": "address",
					"name": "_uniswapV3Router",
					"type": "address"
				},
				{
					"internalType": "address",
					"name": "_uniswapV2Router",
					"type": "address"
				},
				{
					"internalType": "address",
					"name": "_quoterAddress",
					"type": "address"
				},
				{
					"internalType": "address",
					"name": "_keeper",
					"type": "address"
				},
				{
					"internalType": "address",
					"name": "_feeWallet",
					"type": "address"
				},
				{
					"internalType": "address",
					"name": "_owner",
					"type": "address"
				}
			],
			"stateMutability": "nonpayable",
			"type": "constructor"
		},
		{
			"inputs": [],
			"name": "SendEthFailed",
			"type": "error"
		},
		{
			"inputs": [],
			"name": "SenderIsNotAdmin",
			"type": "error"
		},
		{
			"anonymous": false,
			"inputs": [
				{
					"indexed": true,
					"internalType": "bytes32",
					"name": "orderId",
					"type": "bytes32"
				}
			],
			"name": "OrderCancelled",
			"type": "event"
		},
		{
			"anonymous": false,
			"inputs": [
				{
					"indexed": true,
					"internalType": "bytes32",
					"name": "orderId",
					"type": "bytes32"
				},
				{
					"indexed": false,
					"internalType": "uint256",
					"name": "amountIn",
					"type": "uint256"
				},
				{
					"indexed": false,
					"internalType": "address",
					"name": "tokenIn",
					"type": "address"
				},
				{
					"indexed": false,
					"internalType": "address",
					"name": "tokenOut",
					"type": "address"
				},
				{
					"indexed": false,
					"internalType": "uint8",
					"name": "numOfOrders",
					"type": "uint8"
				},
				{
					"indexed": false,
					"internalType": "uint256",
					"name": "interval",
					"type": "uint256"
				},
				{
					"indexed": true,
					"internalType": "address",
					"name": "user",
					"type": "address"
				}
			],
			"name": "OrderCreated",
			"type": "event"
		},
		{
			"anonymous": false,
			"inputs": [
				{
					"indexed": true,
					"internalType": "bytes32",
					"name": "orderId",
					"type": "bytes32"
				},
				{
					"indexed": true,
					"internalType": "bytes32",
					"name": "subOrderId",
					"type": "bytes32"
				},
				{
					"indexed": false,
					"internalType": "uint256",
					"name": "amountIn",
					"type": "uint256"
				},
				{
					"indexed": false,
					"internalType": "uint256",
					"name": "amountOut",
					"type": "uint256"
				},
				{
					"indexed": false,
					"internalType": "uint256",
					"name": "rate",
					"type": "uint256"
				},
				{
					"indexed": false,
					"internalType": "uint256",
					"name": "timestamp",
					"type": "uint256"
				}
			],
			"name": "OrderExecuted",
			"type": "event"
		},
		{
			"anonymous": false,
			"inputs": [
				{
					"indexed": true,
					"internalType": "bytes32",
					"name": "orderId",
					"type": "bytes32"
				},
				{
					"indexed": false,
					"internalType": "uint256",
					"name": "amountIn",
					"type": "uint256"
				},
				{
					"indexed": false,
					"internalType": "uint256",
					"name": "timestamp",
					"type": "uint256"
				}
			],
			"name": "OrderFilled",
			"type": "event"
		},
		{
			"anonymous": false,
			"inputs": [
				{
					"components": [
						{
							"internalType": "bytes32",
							"name": "orderId",
							"type": "bytes32"
						},
						{
							"internalType": "uint256",
							"name": "amountIn",
							"type": "uint256"
						},
						{
							"internalType": "address[]",
							"name": "path",
							"type": "address[]"
						},
						{
							"internalType": "address",
							"name": "user",
							"type": "address"
						},
						{
							"internalType": "uint256",
							"name": "interval",
							"type": "uint256"
						},
						{
							"internalType": "uint256",
							"name": "lastSwapDate",
							"type": "uint256"
						},
						{
							"internalType": "uint256",
							"name": "remaining",
							"type": "uint256"
						},
						{
							"internalType": "uint8",
							"name": "swapsLeft",
							"type": "uint8"
						},
						{
							"internalType": "uint8",
							"name": "numOfOrders",
							"type": "uint8"
						},
						{
							"internalType": "uint256",
							"name": "minPrice",
							"type": "uint256"
						},
						{
							"internalType": "uint256",
							"name": "maxPrice",
							"type": "uint256"
						},
						{
							"internalType": "uint256",
							"name": "gasAmount",
							"type": "uint256"
						},
						{
							"internalType": "uint256",
							"name": "amountInPerOrder",
							"type": "uint256"
						}
					],
					"indexed": false,
					"internalType": "struct DCA.Order",
					"name": "order",
					"type": "tuple"
				}
			],
			"name": "OrderPushed",
			"type": "event"
		},
		{
			"anonymous": false,
			"inputs": [
				{
					"indexed": true,
					"internalType": "address",
					"name": "previousOwner",
					"type": "address"
				},
				{
					"indexed": true,
					"internalType": "address",
					"name": "newOwner",
					"type": "address"
				}
			],
			"name": "OwnershipTransferred",
			"type": "event"
		},
		{
			"anonymous": false,
			"inputs": [
				{
					"indexed": false,
					"internalType": "address",
					"name": "account",
					"type": "address"
				}
			],
			"name": "Paused",
			"type": "event"
		},
		{
			"anonymous": false,
			"inputs": [
				{
					"indexed": false,
					"internalType": "address",
					"name": "account",
					"type": "address"
				}
			],
			"name": "Unpaused",
			"type": "event"
		},
		{
			"inputs": [
				{
					"internalType": "bytes32",
					"name": "orderId",
					"type": "bytes32"
				}
			],
			"name": "cancelOrder",
			"outputs": [],
			"stateMutability": "nonpayable",
			"type": "function"
		},
		{
			"inputs": [
				{
					"internalType": "uint256",
					"name": "amountIn_",
					"type": "uint256"
				},
				{
					"internalType": "address",
					"name": "tokenIn",
					"type": "address"
				},
				{
					"internalType": "address",
					"name": "tokenOut",
					"type": "address"
				},
				{
					"internalType": "uint256",
					"name": "interval_",
					"type": "uint256"
				},
				{
					"internalType": "uint8",
					"name": "numOfOrders_",
					"type": "uint8"
				},
				{
					"internalType": "uint256[2]",
					"name": "priceRange_",
					"type": "uint256[2]"
				}
			],
			"name": "createOrder",
			"outputs": [
				{
					"internalType": "bytes32",
					"name": "",
					"type": "bytes32"
				}
			],
			"stateMutability": "payable",
			"type": "function"
		},
		{
			"inputs": [
				{
					"internalType": "bytes32",
					"name": "orderId_",
					"type": "bytes32"
				}
			],
			"name": "forceCancelOrder",
			"outputs": [],
			"stateMutability": "nonpayable",
			"type": "function"
		},
		{
			"inputs": [],
			"name": "gasAmountForWithdraw",
			"outputs": [
				{
					"internalType": "uint256",
					"name": "",
					"type": "uint256"
				}
			],
			"stateMutability": "view",
			"type": "function"
		},
		{
			"inputs": [],
			"name": "gasUsedPerTX",
			"outputs": [
				{
					"internalType": "uint256",
					"name": "",
					"type": "uint256"
				}
			],
			"stateMutability": "view",
			"type": "function"
		},
		{
			"inputs": [
				{
					"internalType": "bytes32",
					"name": "orderId",
					"type": "bytes32"
				}
			],
			"name": "getOrder",
			"outputs": [
				{
					"components": [
						{
							"internalType": "bytes32",
							"name": "orderId",
							"type": "bytes32"
						},
						{
							"internalType": "uint256",
							"name": "amountIn",
							"type": "uint256"
						},
						{
							"internalType": "address[]",
							"name": "path",
							"type": "address[]"
						},
						{
							"internalType": "address",
							"name": "user",
							"type": "address"
						},
						{
							"internalType": "uint256",
							"name": "interval",
							"type": "uint256"
						},
						{
							"internalType": "uint256",
							"name": "lastSwapDate",
							"type": "uint256"
						},
						{
							"internalType": "uint256",
							"name": "remaining",
							"type": "uint256"
						},
						{
							"internalType": "uint8",
							"name": "swapsLeft",
							"type": "uint8"
						},
						{
							"internalType": "uint8",
							"name": "numOfOrders",
							"type": "uint8"
						},
						{
							"internalType": "uint256",
							"name": "minPrice",
							"type": "uint256"
						},
						{
							"internalType": "uint256",
							"name": "maxPrice",
							"type": "uint256"
						},
						{
							"internalType": "uint256",
							"name": "gasAmount",
							"type": "uint256"
						},
						{
							"internalType": "uint256",
							"name": "amountInPerOrder",
							"type": "uint256"
						}
					],
					"internalType": "struct DCA.Order",
					"name": "",
					"type": "tuple"
				}
			],
			"stateMutability": "view",
			"type": "function"
		},
		{
			"inputs": [
				{
					"internalType": "uint256",
					"name": "index",
					"type": "uint256"
				}
			],
			"name": "getOrderAt",
			"outputs": [
				{
					"internalType": "bytes32",
					"name": "",
					"type": "bytes32"
				}
			],
			"stateMutability": "view",
			"type": "function"
		},
		{
			"inputs": [
				{
					"internalType": "address",
					"name": "user",
					"type": "address"
				},
				{
					"internalType": "bytes32",
					"name": "index",
					"type": "bytes32"
				}
			],
			"name": "indexOfUserByOrderID",
			"outputs": [
				{
					"internalType": "uint256",
					"name": "",
					"type": "uint256"
				}
			],
			"stateMutability": "view",
			"type": "function"
		},
		{
			"inputs": [],
			"name": "keeper",
			"outputs": [
				{
					"internalType": "address",
					"name": "",
					"type": "address"
				}
			],
			"stateMutability": "view",
			"type": "function"
		},
		{
			"inputs": [
				{
					"internalType": "address",
					"name": "user",
					"type": "address"
				},
				{
					"internalType": "uint256",
					"name": "index",
					"type": "uint256"
				}
			],
			"name": "orderIdOfUserByIndex",
			"outputs": [
				{
					"internalType": "bytes32",
					"name": "",
					"type": "bytes32"
				}
			],
			"stateMutability": "view",
			"type": "function"
		},
		{
			"inputs": [
				{
					"internalType": "address",
					"name": "user",
					"type": "address"
				}
			],
			"name": "ordersCreatedByUser",
			"outputs": [
				{
					"internalType": "uint256",
					"name": "",
					"type": "uint256"
				}
			],
			"stateMutability": "view",
			"type": "function"
		},
		{
			"inputs": [],
			"name": "owner",
			"outputs": [
				{
					"internalType": "address",
					"name": "",
					"type": "address"
				}
			],
			"stateMutability": "view",
			"type": "function"
		},
		{
			"inputs": [],
			"name": "pause",
			"outputs": [],
			"stateMutability": "nonpayable",
			"type": "function"
		},
		{
			"inputs": [],
			"name": "paused",
			"outputs": [
				{
					"internalType": "bool",
					"name": "",
					"type": "bool"
				}
			],
			"stateMutability": "view",
			"type": "function"
		},
		{
			"inputs": [
				{
					"internalType": "bytes32",
					"name": "orderId",
					"type": "bytes32"
				}
			],
			"name": "performUpkeep",
			"outputs": [],
			"stateMutability": "nonpayable",
			"type": "function"
		},
		{
			"inputs": [],
			"name": "quoter",
			"outputs": [
				{
					"internalType": "contract IQuoter",
					"name": "",
					"type": "address"
				}
			],
			"stateMutability": "view",
			"type": "function"
		},
		{
			"inputs": [],
			"name": "recieveGas",
			"outputs": [],
			"stateMutability": "nonpayable",
			"type": "function"
		},
		{
			"inputs": [
				{
					"internalType": "address",
					"name": "token",
					"type": "address"
				}
			],
			"name": "recieveTokenFees",
			"outputs": [],
			"stateMutability": "nonpayable",
			"type": "function"
		},
		{
			"inputs": [],
			"name": "renounceOwnership",
			"outputs": [],
			"stateMutability": "nonpayable",
			"type": "function"
		},
		{
			"inputs": [
				{
					"internalType": "address",
					"name": "_uniswapV3Router",
					"type": "address"
				}
			],
			"name": "setUniswapV3Router",
			"outputs": [],
			"stateMutability": "nonpayable",
			"type": "function"
		},
		{
			"inputs": [
				{
					"internalType": "address",
					"name": "token",
					"type": "address"
				}
			],
			"name": "tokenAmountForWithdraw",
			"outputs": [
				{
					"internalType": "uint256",
					"name": "",
					"type": "uint256"
				}
			],
			"stateMutability": "view",
			"type": "function"
		},
		{
			"inputs": [],
			"name": "totalOrders",
			"outputs": [
				{
					"internalType": "uint256",
					"name": "",
					"type": "uint256"
				}
			],
			"stateMutability": "view",
			"type": "function"
		},
		{
			"inputs": [
				{
					"internalType": "address",
					"name": "newOwner",
					"type": "address"
				}
			],
			"name": "transferOwnership",
			"outputs": [],
			"stateMutability": "nonpayable",
			"type": "function"
		},
		{
			"inputs": [],
			"name": "uniswapV2Router",
			"outputs": [
				{
					"internalType": "contract IUniswapV2Router02",
					"name": "",
					"type": "address"
				}
			],
			"stateMutability": "view",
			"type": "function"
		},
		{
			"inputs": [],
			"name": "uniswapV3Router",
			"outputs": [
				{
					"internalType": "contract ISwapRouter",
					"name": "",
					"type": "address"
				}
			],
			"stateMutability": "view",
			"type": "function"
		},
		{
			"inputs": [],
			"name": "unpause",
			"outputs": [],
			"stateMutability": "nonpayable",
			"type": "function"
		},
		{
			"inputs": [
				{
					"internalType": "uint256",
					"name": "_fee",
					"type": "uint256"
				}
			],
			"name": "updateFee",
			"outputs": [],
			"stateMutability": "nonpayable",
			"type": "function"
		},
		{
			"inputs": [
				{
					"internalType": "address",
					"name": "_feeWallet",
					"type": "address"
				}
			],
			"name": "updateFeeWallet",
			"outputs": [],
			"stateMutability": "nonpayable",
			"type": "function"
		},
		{
			"inputs": [
				{
					"internalType": "address",
					"name": "_keeper",
					"type": "address"
				}
			],
			"name": "updateKeeper",
			"outputs": [],
			"stateMutability": "nonpayable",
			"type": "function"
		}
	]
}